:020000041000EA
:1000000000B5324B212058609868022188439860DF
:10001000D860186158612E4B002199600221596106
:100020000121F02299502B49196001219960352056
:1000300000F044F80222904214D00621196600F024
:1000400034F8196E01211966002018661A6600F04E
:100050002CF8196E196E196E052000F02FF8012189
:100060000842F9D1002199601B49196000215960AB
:100070001A491B48016001219960EB211966A021F2
:10008000196600F012F800219960164914480160C1
:100090000121996001BC002800D000471248134993
:1000A000086003C880F30888084703B5996A0420EC
:1000B0000142FBD001200142F8D103BD02B5186610
:1000C0001866FFF7F2FF186E186E02BD00000240BE
:1000D000000000180000070000035F00212200005C
:1000E000F4000018222000A00001001008ED00E03C
:1000F00000000000000000000000000074B24E7A12
:1001000000200420F7010010C3010010C5010010F9
:10011000C1010010C1010010C1010010C101001097
:10012000C1010010C1010010C1010010C701001081
:10013000C1010010C1010010C9010010CB01001065
:10014000CD010010CD010010CD010010CD01001037
:10015000CD010010CD010010CD010010CD01001027
:10016000CD010010CD010010CD010010CD01001017
:10017000CD010010CD010010CD010010CD01001007
:10018000CD010010CD010010CD010010CD010010F7
:10019000CD010010CD010010CD010010CD010010E7
:1001A000CD010010CD010010CD010010CD010010D7
:1001B000CD010010CD010010CD010010CD010010C7
:1001C00000BE00BE00BE00BE00BE00BEEFF3058054
:1001D000103800BEF2EB887184750010A87500100D
:1001E0003802001090A31AE71E481F49086006C88D
:1001F00081F3088810471D480068002801D019487D
:10020000F3E70DA40ECC002902D000F012F8F9E7B4
:100210001749184A002000E001C19142FCD116495B
:100220008847164988471649884700BEFDE701C937
:1002300001C29A42FBD37047A8750010C00000208D
:100240002C10002014850010000004200000042061
:10025000148500100010042000100420000000008D
:10026000704700000000000008ED00E0000000D032
:100270002C1000205C2302204921001021030010D3
:1002800041210010F8B5C0460448054B10B5834223
:1002900003D0044B002B00D0984710BD2C10002039
:1002A0002C1000200000000006480749091A8B1096
:1002B000C90FC91810B5491003D0044B002B00D04A
:1002C000984710BD2C1000202C10002000000000CA
:1002D00010B5074C2378002B09D1FFF7D5FF054B4C
:1002E000002B02D0044800E000BF0123237010BDA2
:1002F000F813002000000000D8700010054B10B566
:10030000002B03D00449054800E000BFFFF7CCFFF5
:1003100010BDC04600000000FC130020D870001083
:1003200000B583B002F024F800238022019301334A
:100330000449009392000023034805F065FE05F090
:1003400075FEFEE7D870001051050010F0B5C646E6
:100350001C0000B5304B0E00C118090D063186B0E7
:100360000500C9B22000170000F022F90123310076
:1003700022000093280006F053FD80235B020293C5
:10038000FB1CFA011B031343244AA40213400393EA
:10039000F823DB011C4080239B0523430593204B5E
:1003A0000520049301F05CF901F01EFE1D49041CB8
:1003B0000C9801F012FE011C201C01F0FAFDEC214A
:1003C000890501F0F3FD804601F036FE84B200237A
:1003D000002C0ED0200001F007FE011C404601F069
:1003E000E2FD8721C90501F0F8FD01F025FEC3B249
:1003F0001B0224043A001C43310002AB2800029483
:1004000006F068FD0123B3402A6813432B6006B051
:1004100080BCB846F0BDC0460000E0AFFFFFFF9FC4
:1004200000000E5000002041F0B5194E83B00500C9
:100430001849300006F072FC174F0400002130000C
:100440003E6006F04FFC154B01001860144B220073
:10045000386800932B00FFF779FF00224821114BE9
:100460005A5200211A605A609A60DA601A615A6121
:100470009A61DA611A625A629A62DA621A635A639C
:100480009A63DA631A645A644A32995403B0F0BD2D
:1004900000002050E87000107C1F00204422002043
:1004A00000504349281F002030B5044D4400201857
:1004B0002C002D186970AB70225430BD281F00200D
:1004C000002248210B4B5A5200211A605A609A6050
:1004D000DA601A615A619A61DA611A625A629A6242
:1004E000DA621A635A639A63DA631A645A644A32A4
:1004F00099547047281F0020124B70B51A68124B90
:1005000012481C6801232100060010318B40A40012
:100510004B361419057851680B42FCD1256145789A
:1005200051680B42FCD12561857851680B42FCD1A2
:10053000033025618642EDD16420002100F0E4FE05
:1005400070BDC0467C1F002044220020281F0020D0
:10055000072010B5FFF768FFFFF7B2FF0023002266
:10056000C8210020FFF7A0FFFFF7C6FFFA20800098
:1005700005F062FEFFF7A4FF0023C822C82109206E
:10058000FFF792FFFFF7B8FFFA20800005F054FE56
:10059000FFF796FF0023C82200210A20FFF784FFFF
:1005A000FFF7AAFFFA20800005F046FED4E7C04618
:1005B000094A83009A1810B51468402254408032CA
:1005C0002240064CC000A44663441A60044B9C467B
:1005D0006044416010BDC04604C0014004D00140E9
:1005E000004001408023DB051868000F7047C046BB
:1005F0000FB400B5084883B001F00AFF049B002B3C
:1006000007D005A91800019101F080FD034801F011
:10061000FFFE012001F092FDF8700010087100103B
:1006200010B50148FFF7E4FF0C710010EFF31080E4
:1006300072B6034A1368002BFCD0BFF35F8F70477C
:100640002C0100D0BFF35F8F0022024B1A6080F3B1
:10065000108870472C0100D070B5EFF3108C72B683
:100660000D4D2B68002BFCD0BFF35F8F0724CB0808
:10067000C618C05C01230C40A3401C000440034288
:1006800007D118433070BFF35F8F2C608CF3108854
:1006900070BD1000FFF7ACFF2C0100D0F8B5474645
:1006A000CE46884680B5EFF3108C72B6214D2C688B
:1006B000002CFCD0BFF35F8F9A422CD8D4080727B8
:1006C000055D061901241740BC402C421FD00721AC
:1006D0000127894609E0D408055D06194C46390012
:1006E0001440A1400C00294211D001329342F2D2B1
:1006F00001204042BFF35F8F00220E4B1A608CF343
:10070000108800280FDBC0BCB946B046F8BD2543B1
:1007100010003570EEE7BFF35F8F00232B608CF382
:100720001088012040424346002BECD00898FFF788
:100730005FFFC0462C0100D0044A1078431CDBB296
:10074000172B00D9102313707047C046580F002094
:1007500010B5064B064C82B00100009318221F23EF
:100760002000FFF79BFF02B010BDC0461C710010B7
:10077000BC1A00200021044B044ABFF35F8F02C360
:100780009342FAD17047C046000100D0800100D0EA
:10079000054B064A1360064A136053609360D360AA
:1007A00013615361936170478080808000E400E0B2
:1007B00004E400E01F2318401E3B8340002905D0BD
:1007C000C021044A490053501360704780220149F8
:1007D0008B50FAE700E100E001228240034B1B68E6
:1007E00013405A1E9341D8B27047C04600E100E062
:1007F00001238340014A13607047C04600E200E0D5
:10080000064B10309B688000C358054A00209B1A95
:100810002F229A424041C0B27047C04600ED00E02E
:100820005C0F002070B50D00EFF3108672B60F4A12
:100830001368002BFCD0BFF35F8F0D4B10309B680B
:1008400084001B590B4A934203D09D4201D001F012
:100850000FF8074B9B681D51BFF35F8FBFF35F8F8E
:100860000022024B1A6086F3108870BD240100D06C
:1008700000ED00E0CD010010F0B557464E46DE46D3
:100880004546E0B585B0060000911700EFF3108BE8
:1008900072B66A4A1368002BFCD0BFF35F8F002545
:1008A000674B5D579A46002D00DA8BE06B00654C74
:1008B00001935B199B009846A146C1444B465246A2
:1008C0009B7910361370604BB6009B6899590B1BCF
:1008D0002F2B33D95D4B994200D0ACE0019B4246AF
:1008E0009C465B4B6544AD0063535A4B0232A218E1
:1008F000043B9B1A1B05584A5B0D651913436B801B
:10090000564B0121AB80FF23AB71009BEF71AB60B5
:100910004B460B4319004C4B9B689951BFF35F8FBB
:10092000BFF35F8F0022454B1A608BF3108805B030
:10093000F0BCBB46B246A946A046F0BD01200A0065
:100940008243D3798C46BB4231D845461300444993
:100950001B1B5B415943090D3D4B63533D4B023516
:100960006519043B5B1B1B053B4D5B0D2B43AA46E6
:100970004D466B800425AC465546E044131F444465
:100980001B1B1B055B0D1D434B46997100999D80F8
:1009900099604946DF71334B01431360BBE7580050
:1009A000C01880002018C179B94211D9020006236D
:1009B000D356002BF3DA0293131D9A462A4B614655
:1009C000039319E000F054FF002553465D576DE78F
:1009D000908802934005131D9A46031561469C4674
:1009E0004046D444634604302018181AE02300051A
:1009F000400D1B021843039004235B429C46E144D4
:100A000050464B461B1A1B055B0D9C46124B9571BD
:100A100098466346404603439380019B5A199200CF
:100A2000039BA418A380029B0E4AA371009B226023
:100A3000E771A3606FE700F01BFF4FE7240100D0D0
:100A4000542302205C0F002000ED00E0CD010010D7
:100A500000A1FFFF8C0F002000E0FFFF01BDFFFFA2
:100A6000AAAA00000148804701BD000010B5830814
:100A7000040003202040FF24054AC000944684401F
:100A800081409B0063441A68A2430A431A6010BD68
:100A900000E400E070B501240443EFF30581EFF3B7
:100AA000108C72B6214A1368002BFCD0BFF35F8F05
:100AB0001F4B05001F4AED1A6D416A43120D1E4D72
:100AC0008900AE6852B27658A6421CD0062159560B
:100AD00091421CD012215956914222D01E215956C2
:100AE000914220D02A2159560324914210D0134B11
:100AF00019781A708171BFF35F8F00220B4B1A6057
:100B00008CF3108870BDAB680D4C5C50EFE700248F
:100B10006100091989005B18FF21997109499980C1
:100B2000E5E70124F4E70224F2E7C046240100D0FF
:100B30005C0F0020AAAA000000ED00E05423022070
:100B4000CD01001001BDFFFF10B5084B084C82B06D
:100B500001000093002205232000FFF79FFD0028DD
:100B600001DB1F23181A02B010BDC04638710010F7
:100B700058230220024B9C46614489000160704763
:100B800040000034F0B5C646164D174E2C0000B597
:100B9000B54224D200230127984623687F42002BC8
:100BA00011D0FFF7C9FD01002800FFF7E3FF43461E
:100BB00067602372BFF35F8F0C34B4420FD2236897
:100BC0002500002BEDD1FFF7B7FD01002800FFF74E
:100BD000D1FF6760BFF35F8F0834B442EFD380BCAE
:100BE000B846F0BD1C1000202C10002010B50400E9
:100BF000FFF7A2FD01002000FFF7BCFF01235B42CD
:100C00006360BFF35F8F10BD10B504000120FFF7D4
:100C10009FFD034BC3189B002360BFF35F8F10BD84
:100C200040000034034B9C46614489000160BFF3DF
:100C30005F8F704740000034F0B5DE4657464E46A1
:100C40004546E0B585B0EFF3058203231340B64A6D
:100C50009900575801229A4088469346B34B1A6030
:100C6000B34B02935B46B34843630823FE5E002EFA
:100C700035DABB881BB2002B00DBA8E0BB79002B68
:100C800000D0E9E00823F85E00281EDB43007A6903
:100C90001B18DB00D3189D68DC686B1C00D108E1D1
:100CA000A44801004144826A0B69AE1A9B1A9E4215
:100CB00013D35A46036A1A420FD09E4800F0C0FB75
:100CC0008C4202DCCED18542CCD940BF05B0F0BC0D
:100CD000BB46B246A946A046F0BD0D61EDE77A6974
:100CE000730091469B19DB0099444B469C68DD6874
:100CF00000F0A6FB8D42BCDC00D1FEE0002D00DA46
:100D0000E3E04B46029A1B69934200D1D5E04A4684
:100D10005288494694460822B85E624600044969F2
:100D200010439847009001910099019A0B00100020
:100D3000134300D1C9E013000A00002800DBE0E003
:100D400020002900801A99414B469860D960002202
:100D50009A5E002A00DA8CE753009C187D69E40053
:100D60002C190093A368E4689A468C4200DD80E762
:100D700002D1834200D97CE708239C46BC443A81D7
:100D800003976746009BB4463E000EE08C4200D1BC
:100D9000C5E01E000023F25E002A0BDB53009C1806
:100DA000E4002C19A768E468BA469B18DB00EB182E
:100DB0008C42EBDD330066469C464B461A80634608
:100DC000039F1E80BB881BB2002B00DA56E73A69EE
:100DD000EFF3108172B61368002BFCD0BFF35F8F66
:100DE0000123BE885B42BB8036B23B69BFF35F8F95
:100DF00000221A6081F31088002E00DA3EE73B00E3
:100E000008333A0099467D6973009B19DB00EB18A3
:100E10009968DC688C460820115E4846002910DB82
:100E2000009306E0A34240D00023F95E3800002979
:100E300006DB4F007F18FF00EF19FB68A342F1DDCE
:100E4000009B068000201E5E1980002EDCDA170051
:100E5000BB79002B00D115E70023BB713D000823AF
:100E6000F95E08354B1C00D12FE77C690800A446C9
:100E700003E035004B1C00D106E74B005B180A006D
:100E80006146DB00CE18C95E73881BB2002BF0DA16
:100E900001235B42DC17B360F4608242EAD0298010
:100EA0003B89100033803A81E4E7BB686345BBD9D6
:100EB000C6E7631C00D0F3E6FFE64B465B699A4643
:100EC0001B6950469847002823D14B461B883A6936
:100ED0003B81EFF3108372B611680029FCD0BFF399
:100EE0005F8F49467A880A803A697E80BFF35F8FB8
:100EF0000021116083F31088BBE6844200D8FDE630
:100F0000B7E60C4800F09CFA009B019CC0186141B8
:100F10001AE753461A685B680092019304E782451A
:100F200000D836E746E7C046881F00203C700540E1
:100F3000390C001000400540074810B50268EFF377
:100F4000108172B61368002BFCD0BFF35F8F04F0E2
:100F5000D3F80020002110BD4022002070B52E4C97
:100F60002569002D04D00A212C48FFF703FE70BD2F
:100F70002B4E0321300000F059FAE660FFF7DCFB4E
:100F8000284B03229C46D02322701B061B6801219C
:100F90006370254B6044A3600F2380002061022012
:100FA000638063694942A180198002311986473103
:100FB0001D83585218315A5275325C399952183281
:100FC0000131995218320131995218320131995236
:100FD000083518329D5202311832995218320131B7
:100FE00099521832013199521832013199521832FE
:100FF000013199521832013199520C4B0C49DC6085
:1010000001303562FFF70EFC01210320FFF7D2FB10
:10101000084B1D60A7E7C046A40F00204022002017
:101020000040054040000034FFFF1000881F0020F2
:10103000390C00103860054000487047A40F0020AC
:10104000F8B51F0008AB1B7804001600002B08D170
:1010500000F0FEF932003B00121A8B41002B00DA3F
:1010600053E02269EFF3108072B61368002BFCD0B6
:10107000BFF35F8F0223E15E63694A005218D2001A
:101080009B18002937DB1A8862802269BFF35F8FC3
:101090000025156080F31088069A9E60DF601A6153
:1010A000079A5A615A8801325204520C101C002AC5
:1010B0001FD082B25880080410432669EFF31087CE
:1010C00072B63268002AFCD0BFF35F8FA2881A8004
:1010D000A1802369BFF35F8F00221A6087F3108815
:1010E0000B4923788C4601329A40E36863441A60C6
:1010F000F8BD0120DDE72369BFF35F8F00221A608E
:1011000080F3108801204042F2E70020F0E7C0465B
:101110003C20000070B501000469EFF3108C72B63A
:1011200020680028FCD0BFF35F8F02200D5E4C6961
:1011300068004019C0002418002D37DB2088488043
:101140000869BFF35F8F002606608CF31088E360A8
:1011500063880498013320615B0405985B0CA260EE
:1011600060611A1C002B1FD093B2280462801843C0
:101170000A69EFF3108C72B61368002BFCD0BFF332
:101180005F8F8B8823808D800B69BFF35F8F002278
:101190001A608CF310880B7801329A40CB680849AA
:1011A0008C4663441A6070BD0122DDE70B69BFF312
:1011B0005F8F00221A608CF3108801204042F2E712
:1011C0003C20000010B543890A1493421ADD5300F5
:1011D0009B184269DB00D3180469EFF3108C72B6D8
:1011E0002268002AFCD0BFF35F8F5A88090494B2AA
:1011F000090C8A4208D00369BFF35F8F00221A608E
:101200008CF31088002010BD8022120214435C80F1
:10121000012302698371BFF35F8F002111608CF39A
:101220001088044902788C469340C26801206244C9
:101230001360E8E73C20000040787047F0B547466F
:10124000CE46040080B50D0096267642F717361973
:101250006F4183B08F4215D812D000F0F9F83200F8
:101260003B00121A8B41002B16DC002B40D02000D3
:10127000290000F0F7F803B0C0BCB946B046F0BD95
:101280008642EAD90026002700F0E2F832003B004F
:10129000121A8B41002BE8DD00F0DAF832003B0037
:1012A000121A8B41002B0ADB00230193124B3200F0
:1012B000009312483B00FFF72DFF0028D7DBB8460C
:1012C000B1460F4F0F4E7B6A984504D8BA6A4A451B
:1012D000CDD29845CBD13268EFF3108172B6136846
:1012E000002BFCD0BFF35F8F300003F0CFFEEAE7A6
:1012F000002ABCD0D0E7C046390F0010A40F002050
:10130000004005404022002070B504000D0000F0B0
:101310009FF88023001969411B06994202D30120DE
:1013200002494042FFF78AFF70BDC046FFFFFF7FC2
:10133000F0B5CE46474680B504000D0083B0EFF30C
:101340000587002F0DD0364A0020536A8B4203D305
:10135000926A0130A24250D303B0C0BCB946B04635
:10136000F0BD304B9846DB689946434648461E78A8
:1013700000F066F80B00494602000436B6007158CA
:1013800020008E1A2900801A99418F4211DC0ED05C
:1013900020BF234A0020536AAB42DDD3926A01305A
:1013A000A242D9D2EB1A5A1E9341D8B2D4E7864250
:1013B000EED900F04DF822002B00121A8B41002BC1
:1013C00020DB00230193184B2200009340462B00A2
:1013D000FFF7A0FE011E15DD114B2E005A6A954243
:1013E0001CD89B6AA34217D34046FFF7EBFE0C4A7A
:1013F0000020536A9E42AFD8D0E75B1A5A1E934131
:10140000D8B2A9E7064A0020536AAB42A4D3926A35
:101410000120A242A0D2C5E79542E5D120BFE3E773
:1014200000400540A40F0020390F001010B5024AFB
:101430000248FFF711F910BD54710010C01A0020C6
:101440000300416A0A00986A596A8A42FAD17047D1
:10145000034B596A0A00986A596A9142FAD1704757
:1014600000400540064A536A9942FCD807D1044B14
:1014700002E05A6A914202D19A6A8242F9D37047D5
:1014800000400540F8B5DE464E4657464546E0B5B5
:101490008B4605000A991800160000F0C7FA0A9B4F
:1014A0006C001F02324B64199C46A40064446368BC
:1014B00081469F4200D967602B1FDBB29846012B03
:1014C00030D9C02380229B01E31812011A60294BF6
:1014D000AD0059599A4600291BD17301E0262268B4
:1014E00053401E40802342465B01E3181E60012AE0
:1014F00030D9802380229B01E31812011A605346E1
:101500004A4667605A51F0BCBB46B246A946A0465F
:10151000F8BD586900F08AFA013043001B18033BFC
:10152000FDD2DAE75B46012BCBD1C02303229B011E
:10153000E3181A60023AA3681A42FCD07301E0264D
:101540002268AD0053401E4080230A4A5B01924648
:10155000E3181E605A462168514003220A401A606F
:1015600001225B469A40A3681A42FCD0C1E7C046FC
:1015700000800040C81A0020F0B546464F46D646C7
:10158000C0B51F00344B44009C462418A40064449A
:10159000636888461600FF2B02D880235B006360D7
:1015A000031FDBB29A46012B30D9C02380229B0156
:1015B000E31812011A60294B8500595999460029F0
:1015C0001BD17301E026226853401E4080235246FF
:1015D0005B01E3181E60012A30D9802380229B0121
:1015E000E31812011A6080235B0063604B465F5171
:1015F000E0BCBA46B146A846F0BD586900F016FAFC
:10160000013043001B18033BFDD2DAE74346012BB0
:10161000CBD1C02303229B01E3181A60023AA368CE
:101620001A42FCD07301E0262268850053401E4018
:1016300080230A4A5B019146E3181E6042462168F6
:10164000514003220A401A60012342469340A26897
:101650001342FCD0C1E7C04600800040C81A0020F9
:10166000014B8000C0587047C81A0020F8B504002C
:1016700020481D0017000E0000F0D8F901003800C6
:1016800000F0D4F9069B29041B0319432368002B9F
:101690001EDB194B194DE21853425A4180235B015E
:1016A0009C461203164B62441A60164B1A601700D0
:1016B0002B689F43FBD1144B2660E2182123A060C6
:1016C00013602368002BFCDA0823E1601360F8BD87
:1016D0003F2322681340B342DBD1A3681B051B0DD7
:1016E0008342D6D1EE22E368D20213408B42D0D19E
:1016F000EDE7C046001BB7000040FDBF08C000403A
:1017000000E0004000F000400430000010B58024EC
:101710001C4BE4051C6000281AD001231A4C184306
:101720001A4BDC611A4C44401C6259629862802159
:10173000144BC9051960174817490860E021C9040E
:101740001960002A07D18022144B12061A6010BDBE
:101750000E4BD861EBE753019B1A9B009A1880232C
:1017600012015B049A4209D213000D490B60074B2A
:101770005A608022094BD2051A60E8E7094B1A002B
:10178000F3E7C04600B00540D3C007B00080054075
:101790002D3FF84FFCFF01000820014000A005404C
:1017A000741F0020FFFFFF008023024A9B000B43B1
:1017B000D362704700800540142310B501001888DB
:1017C00004331B88984710BD162310B501001888F4
:1017D00002331B88984710BDF8B54746CE4680B502
:1017E0000F1E19D014239946043304000025012646
:1017F00098464B461888434621681B88984701C481
:10180000431E9841013540420640AF42F1D13000BD
:10181000C0BCB946B046F8BD0126F8E7142370B540
:101820000400188804331B880D00054998470300FD
:101830000020002C01DB0130A04029009847C04661
:1018400055420000AA23064A1B0113608D235B004A
:10185000D3600449044B19605368002BFCDA7047CD
:101860000040024000B0FA00006002407047C046ED
:1018700010B50148FEF7BCFE7871001070B5074D39
:10188000074EB54209D20024013E761BB60808CDAA
:10189000984723000134B342F9D170BD9070001015
:1018A000CC700010054B064A06491A60064A074BE1
:1018B0001A6010000B689843FBD1704700E00040AD
:1018C000BFCDFBFE08C00040FE7F3C0000F00040A2
:1018D000044BDB6C002B03D18022034BD2021A6035
:1018E0007047C046000011504C201150044A054B6F
:1018F0001A60054A1368DB018033FBD17047C0468C
:10190000FFFFFF0100F0004008C000404022034BF1
:101910009A675A671A67DA667047C04600F0014056
:1019200010B5FEF727FF10BD70B5044D044CA96833
:10193000C022200000F0DCFBAC6070BD00ED00E0D8
:1019400000000020002310B5294C82B0A367FFF7E8
:1019500079FF0122274B1A60636C012BFCD1032213
:10196000254B1A60224A936B012BFCD10133009363
:101970000121224A22480433FFF778FE0523012182
:101980000093204A2048FFF771FE00220221042024
:101990001E4BFFF7F1FD0022012105201C4BFFF734
:1019A000EBFD0022002107201A4BFFF7E5FD002286
:1019B00000210820174BFFF7DFFD8023DB00009399
:1019C000002200210920134BFFF75CFD0022104B81
:1019D00000210620FFF7D0FD0420FFF741FE0E494D
:1019E00000F024F801000020FFF7DEFE02B010BD79
:1019F000008000403CB0004030B00040002F6859EB
:101A000000800240008C864700C00240001BB700E7
:101A100040597307006CDC0240420F00014804216A
:101A2000014B1847C00F0020D9170010114A936FBF
:101A30009B0813D210665166002905D0FFE7FFE727
:101A4000FFE7516F106F704704B5002801D00020E8
:101A5000C04305F0EDFA002104BDC046F0B5146E98
:101A6000556E576F166FFFF7E5FF1466556657679B
:101A70001667F0BD000000D094464A4A926F920863
:101A8000624601D228E0C046F0B5464E346E756E0F
:101A9000776F366F00F020F89446424A1466556618
:101AA000576716676246F0BD94463E4A926F9208A9
:101AB000624601D254E0C046F0B53A4E346E756EBF
:101AC000776F366F00F04CF89446364A14665566C8
:101AD000576716676246F0BD002B24DB11D0002942
:101AE0003EDA00B5C943404200D1013100F038F878
:101AF000C943404200D10131DB43524200D101339E
:101B000000BD002AEBD1002801D1002905D000201A
:101B1000C90FC90701D1C043410800B505F078FAE3
:101B20000022002300BD00B500290ADBDB4352423E
:101B300000D1013300F014F8C943404200D1013113
:101B400000BDC943404200D10131DB43524200D1C4
:101B5000013300F005F8DB43524200D1013300BDF0
:101B6000002923D1002B18D1002A0CD0BC460D4FE0
:101B700038667A6600210023FFE7FFE7FFE77A6F08
:101B8000386F67467047002801D00748010000B54C
:101B900005F03EFA0022002300BD02000B000020E9
:101BA00000217047000000D0FFFFFFFF002B00D096
:101BB000BFE0130C28D1002AE7D080B4114F39665A
:101BC0007A66FFE7FFE730B4040C7B6F396F1B04C4
:101BD00023433B667A66FFE7FFE7FFE7C04684B230
:101BE0007B6F3D6F1B0423433B667A66FFE7FFE78D
:101BF000C04600232C042D0C7A6F386F0019694100
:101C0000B0BC7047000000D0F0B594460025140E1B
:101C100001D112020835140F01D112010435940FBD
:101C200001D192000235D40F01D152000135D40BFD
:101C30000134254F7C66254C3C660E0C93B2FFE7C1
:101C4000FFE7FFE73C6F6643360C7703BE467343FE
:101C5000DF0B5B04C01AB941130C7343DB18C91ABC
:101C6000CE086643360CB64493B273431F0F1B0174
:101C7000C01AB941130C73431F0B1B05C01AB9419D
:101C8000860D8F023E436643360C092D24DB520A33
:101C90007243801A7703460A6643360C16235B1B91
:101CA000DE40DF40BF1964466643821B7046043540
:101CB00006330100D940A840C01900D30131A24227
:101CC00006D20023F0BD0000000000D0FFFFFFFFA0
:101CD000121B0130F3D3F1E709277F1BFE40644656
:101CE000A2B27243801A00D20139220C7243130C43
:101CF0001204821A99410B00704604351337010013
:101D0000F940A840801900D30131002B02D1A24232
:101D10000AD2F0BD013000D30131121BFAD2013BCF
:101D2000F8D1A24200D2F0BD013000D30131121B24
:101D3000F7E7F0B51C0C00D080E00CB400251C0ABD
:101D400004D11B02160E3343120208351C0B04D1BA
:101D50001B01160F3343120104359C0B04D19B0069
:101D6000960F334392000235DC0B02D192185B418F
:101D700001351C00971864410134464F7C66464C7F
:101D80003C660E0CFFE7FFE7FFE7C0463C6F66438B
:101D9000360C7703BE4697B27743C01B00D2013999
:101DA000C01B00D201399FB27743C91BC91B170C56
:101DB00077437E04FF0B801BB941CE086643360C87
:101DC0000C2D33DBB644120B1F053A431B0B97B2A5
:101DD0007743C01B00D201399FB27743C91B170C50
:101DE00077433E043F0C801BB941860D8F023E4372
:101DF000664329277F1BFE400C3D7746AF40BF1945
:101E000030BCA2B2ABB272437343801A9941220C28
:101E10007243130C1204801A994102000B0001371F
:101E2000001BA941F9D2781E0021F0BD0C277F1BB1
:101E3000FE4077467F0BAF40FF19E0E700245D1CB2
:101E400007D0144F7D663966FFE7FFE7FFE7FFE73E
:101E50003C6F95B29EB265436643401BB141150C81
:101E60001E0C6543664336042F0C3E432D04401B75
:101E7000B141994204D202000B0020000021F0BDC4
:101E800001D19042F7D3801A994101349942F2D39B
:101E9000F6E70000000000D0FFFFFFFF132370B53E
:101EA0001D78012D19D014DD1F48FFF78DFC0600A9
:101EB0001E48FFF789FC1E4C80223100200000F0F4
:101EC00017F9022D2DD01B48FFF776FC1A4B18602E
:101ED00070BD1A4B164CA364F5E7184B144C2360E5
:101EE0006360A360E36023616361A361E3612362D4
:101EF0006362A362E36223636363A363E3632364B4
:101F00006364A364E36423656365A365E365236693
:101F10006366A366E36623676367A367E367A364F7
:101F2000D1E7064BA364CEE75344000053460000BC
:101F3000B81100204C3300003C220020411F00104B
:101F400007B5604601880A0A0230DF2AFAD1C9B211
:101F5000820804D3028840880004104300E000682F
:101F6000014A5050039007BDB8110020514343432C
:101F7000C9188C46110C83B24B4310B4040C614356
:101F800092B280B2504362431C041B0C001910BC77
:101F900059411304120CC0185141614470470000AC
:101FA0004840414048400E4B5B6818470C4B1B684B
:101FB00018470C4A936F9B0802D2094BDB681847FD
:101FC000F0B5146E556E576F166FFFF7F6FF054AA2
:101FD0001466556657671667F0BD014B9B68184736
:101FE000B8120020000000D0491A002808D1084685
:101FF00070470000C10FC90700D54042002817D024
:10200000F44603B40B4B1B68984706BC81409E38CE
:102010004042803107D20B0607D04900490AC0056B
:102020001043084360470130F8E7490A8902F5E7A1
:10203000704700003C220020014B5B6A18470000FB
:10204000B8120020132310B512481C78FFF7BCFB10
:102050000100012C0AD003DD80220F4800F048F86F
:102060000E48FFF7A9FB0E4B186010BD0A4C542216
:10207000200000F03DF80B4B6365A365E365236624
:102080006366A366E36623676367A367E367236208
:10209000E361E5E753460000B81200204C3300002E
:1020A0003C220020A920001007B5604601880A0ADA
:1020B0000230DF2AFAD1C9B2820804D302884088EC
:1020C0000004104300E00068014A5050039007BD2F
:1020D000B812002001480421014B1847D00F0020FE
:1020E000D9170010014B1B6818470000D00F0020C3
:1020F000014B5B6818470000D00F002010B5002886
:1021000000D110BD00F038F9FBE7C04610B5094A10
:102110000300146884B0002C08D001220091064806
:10212000524203A9A047012004B010BD00F070F98D
:102130000020F9E7241F0020FD20001000BEFDE76D
:1021400010B5FFF7FBFFC04670B5FFF797FB074DD3
:10215000074EB54209D20024013E761BB60808CDD1
:10216000984723000134B342F9D170BDCC70001000
:10217000D8700010030010B5080011001B689847C4
:1021800010BDC046F0B546464F46D646C0B5437D65
:1021900080460E001700002B4BD0002A32DD274B63
:1021A00001259A464B1E00240020994607E0335D26
:1021B0000A2B2CD02B0001340135BB4213DA002C42
:1021C000F5D133780A2BF5D143461B7D002BF1D195
:1021D0004346504602211B68984728002B000134D3
:1021E0000135BB42EBDB874204DD4346391A1B68ED
:1021F00030189847F619013E33780D3B5A42534147
:1022000042461375E0BCBA46B146A846F0BD4B46FF
:102210001B5D0D2BCED0A042DADA4346211A1B6893
:10222000301898474346504602211B6898472800BB
:10223000D4E70368110030009847E3E728720010E4
:10224000F0B5DE4657464E464546E0B585B0170028
:102250001C0006000D00FFF7FBF80023314A12189E
:102260004B41802109068B4202D301222E4B524260
:102270002E4908008A4604F0F3FE01906B1C03D13E
:10228000300004F075FE0500002C26D0284B98463F
:10229000284B1C68002C15D0002F21D1264F02E0BE
:1022A0002469002C0ED02368002BF9D03B68002B4A
:1022B00001D0A342F4D120002A003100C047246994
:1022C000002CF0D1019B002B28D1280005B0F0BCD8
:1022D000BB46B246A946A046F0BD184B9846D7E784
:1022E000154B994602ABDF1D0A239B4602E0246989
:1022F000002CE7D02368002BF9D04B461B68002B3D
:1023000001D0A342F3D12A0031002000C0475B4630
:102310000122390020003B70C047E8E7504604F036
:102320006FFED2E740420F00FFFFFF7F2410002026
:1023300085210010181B0020201B00207521001093
:102340000A4A1368002B05D10CE01A001B691032F1
:10235000002B07D09842F8D1002902D103691360FD
:10236000016170470029FCD01060FAE7181B0020BB
:1023700010B500F08DFA10BDF0B5CE46474680B5D9
:1023800083B06B460600DD1D2870FFF761F800235F
:102390001A4A12184B41802109068B4202D30122AE
:1023A000174B524217490800884604F059FE164B55
:1023B00081461C68002C14D0144F02E02469002CC4
:1023C0000FD02368002BF9D03B68002B01D0A3422B
:1023D000F4D1200001222900FFF7D4FE2469002C4B
:1023E000EFD14B46002B05D1300003B0C0BCB9463D
:1023F000B046F0BD404604F003FEF5E740420F0052
:10240000FFFFFF7F24100020181B0020201B00204E
:1024100070B5040004F0ACFD0123010005000122A9
:102420002000FFF70DFF084B1C68002C06D06368E6
:10243000002B05D098472469002CF8D1280070BDE6
:102440002469002CF3D1F9E7181B00207047C0461F
:102450000022014B1A707047552302204B7900204F
:10246000FF2B0BD18B79002B08D1CB79012B05D118
:10247000082A03D9024B8A7809301A707047C0467F
:10248000552302200120704710B5012901D00120F9
:1024900010BD13495379107909781B0203430020BA
:1024A0009942F5D15378012B08D0022BF0D10020AE
:1024B00064220021FFF72AF90120E9E7D378917817
:1024C0001B021943DB0507D54A0A100001231A40F5
:1024D0007E331940FFF7A2F901204A0A4042F5E78E
:1024E0005523022000487047F472001070B50500B3
:1024F00014000120012909D153780020012B05D1B6
:10250000637912791B021343072B00D070BD2100A1
:102510002800024A9F3301F067FAF7E74C72001077
:1025200001230370004870472C7200104B780A7822
:102530001B0213438A7810B512041A43CB781B068A
:1025400013439622D200934200D010BD00220120F6
:1025500011004042FFF762F9024B1860024B19600C
:102560007047C046B41A0020B81A002010B5024BBC
:102570001878FEF73DF910BD56230220154B70B5B3
:102580001A68002A22D0EFF3108172B61068002872
:10259000FCD0BFF35F8F00200F4A596010701B689A
:1025A000BFF35F8F186081F31088002400250B4E65
:1025B0003078FEF711F9002804D100240025290005
:1025C000200070BD3078FEF713F9F8E7FA240025F3
:1025D000A400ECE7801F002057230220562302208E
:1025E00070B5040000200E0001F01EFB002836D05C
:1025F000002001F02FFB002831D0FEF729FF002337
:10260000184A12184B41802109068B4216D2164DEA
:10261000280004F025FD002821D0002001F004FB53
:1026200000280FD101200021404200F00DFD0324BD
:102630006442280004F0E4FC200070BD01220B4B32
:102640005242E4E7002001F005FB0028EAD0210017
:102650003200002001F008FB041EEAD1E7E7032462
:102660006442E9E740420F0048220020FFFFFF7F5D
:1026700010B5FEF7EDFE00230E4A12184B418021E3
:1026800009068B4202D301220B4B52420B4C200015
:1026900004F0E6FC00280CD001200021404200F0AC
:1026A000D3FC002001F02AFB0028F5D1200004F023
:1026B000A7FC10BD40420F00FFFFFF7F4822002013
:1026C000F8B5DE46574680B505000C00FEF7C0FEA3
:1026D0000023374A12184B41802109068B4202D34E
:1026E0000122344B5242344908008A4604F0B8FCB7
:1026F000002803D1C0BCBB46B246F8BD002001F0A3
:1027000093FA00284AD00026002C43DD2B4B9B4631
:1027100014E0A919002001F02BFB07000120002183
:10272000404200F091FC002001F0E8FAFEF790FE34
:10273000224BF61918605960B4422BDD002001F0DD
:1027400037FBA71B0200B84200DD3A00002AE0D1A7
:1027500001200021404200F077FC002001F0CEFA79
:10276000002001F061FA002814D0002001F020FBC5
:102770000028E1D1FEF76CFE5B460F001A685B682B
:10278000002184460E4812184B419F4202D8D3D1F3
:102790009445D1D9504604F033FCABE7002000212A
:1027A000064B18605960504604F02AFCA2E7C04668
:1027B00040420F00FFFFFF7F48220020B0110020A1
:1027C00020A1070030B52B4C85B00021200004F07B
:1027D00037FC00281CD1284B1A68002A16D0EFF3CA
:1027E000108172B610680028FCD0BFF35F8F0124FF
:1027F0002248596002781B68D2B20470BFF35F8F21
:102800000020186081F31088002A17D005B030BD71
:1028100001200021404200F017FC002001F01AFACC
:102820000500200004F0ECFB002DEFD0144B1B68DA
:10283000002BEBD0134A10689847E7E7FEF7FCFB44
:102840000400FEF705FEFA220023920012184B4105
:10285000802109068B4202D301220B4B52420121F7
:10286000029100210191094920000091FEF7E8FB47
:10287000CCE7C04648220020801F002057230220BA
:10288000B41A0020B81A0020FFFFFF7F7D2500103A
:10289000D02310B51B0684B01C68FEF7CDFBFEF7F5
:1028A000CBFCA04202D0002004B010BD2A4B002176
:1028B00000201B7801F076FD28480368002B47D0E4
:1028C0000120FEF741F9FF23254C264920701840CE
:1028D000FDF7A8FF20780121FDF76CFF0520FDF72B
:1028E0008FFF002826D1082200211F48FFF7FAFB9E
:1028F000FEF7A2FB0400FEF7ABFDFA2200239200D4
:1029000012184B41802109068B4202D30122174B3A
:1029100052420121029100210191154920000091AC
:10292000FEF78EFB0028BEDB12480121FFF708FDF1
:102930000120B9E70120FDF70BFF0B4B0100180048
:10294000FEF770F9002205200B49FDF795FFEBE734
:10295000FEF74CF9B4E7C046A475001048220020E9
:1029600056230220C5270010801F0020FFFFFF7F95
:102970007D250010E00F00206D25001000487047F5
:10298000D0730010004870477C73001010B504002D
:1029900017480378002B20D0002C06D1154B164881
:1029A0004380063BFF3B038010BD052C19D8134B19
:1029B000A400E0581249002304E001330A800231E8
:1029C000132B10D0C25C002AF7D1C0220133DBB236
:1029D0005B00920008481343E5E7112100F01AF864
:1029E000DAE70020E0E7CA2303489B00DBE7C046A4
:1029F0005022022009040000F01A00206473001025
:102A0000F21A002010B5024800F0D8F810BDC046F8
:102A10003422002030B54B1E012900D1A7E0664AC0
:102A200011780D112C0030349F2900D9A2E00470D8
:102A3000012B00D1BEE00F21147821400C0030346E
:102A4000092900D998E04470022B00D1B2E05478F3
:102A50002511290030319F2C00D990E08170032B83
:102A600000D1A7E00F2121400C003034092900D902
:102A700087E0C470042B00D19CE0947825112900D4
:102A800030319F2C00D97FE00171052B00D191E0FE
:102A90000F2121400C003034092900D976E044711F
:102AA000062B00D186E0D4782511290030319F2CE7
:102AB00000D96EE08171072B00D17BE00F2121400E
:102AC0000C003034092966D8C471082B00D171E09C
:102AD00014792511290030319F2C5FD80172092B00
:102AE00068D00F2121400C003034092958D8447295
:102AF0000A2B5FD054792511290030319F2C52D8F0
:102B000081720B2B56D00F2121400C003034092943
:102B10004BD8C4720C2B4DD094792511290030313B
:102B20009F2C00D9073101730D2B43D00F21214079
:102B30000C003034092901D937310C0044730E2BB5
:102B400038D0D1790C11220030329F2900D90732B8
:102B500082730F2B2ED00F220A4011003731092A21
:102B600001D830321100C173102B23D01030002354
:102B7000037030BD07345AE737310C0063E7073183
:102B80006CE737310C0074E707317DE737310C0013
:102B900085E707318EE737310C0095E707319DE770
:102BA00037310C00A3E70731AAE737310C00C472B4
:102BB0000C2BB1D1C018DAE73422002030B5002543
:102BC00089B004000922002101A80095FFF78AFAC4
:102BD0000922002105A80495FFF784FA4B236A46D1
:102BE0006846137004A90D2204F0FAF91521082291
:102BF00020006944FFF77CFA09B030BDF8B500F059
:102C000045F90C23194DFF22AB6705201849FDF744
:102C100033FE184C402200212000FFF763FA4027C2
:102C2000002301262121144A66702783A2601360C5
:102C300063545F31618445396354104A10496360BD
:102C4000E2602787A1620B606362E26204F0E8F948
:102C500080239B052E64EB6490230A4A0120EA50EE
:102C60008022094B5202DA64F8BDC04600001150C0
:102C70006D040020241B002084001050000110501F
:102C80008000105010D001000020115010B501211B
:102C90000520FDF78FFD10BD10B500220021024870
:102CA00000F014F910BDC046441B0020044B1970FD
:102CB000002904D080219023024A8902D150704714
:102CC00051230220002011500B785B0602D14B7873
:102CD000052B00D070478A78014B1A60FAE7C0468E
:102CE00000001150F0B5C646C87800B58007830FC4
:102CF0001800012B60D08F780A794B797F213940F9
:102D0000FC091B024E001343334D32195201AA181D
:102D1000977001276740577000275B055B0DD770E0
:102D20001383D076B846CA00012C32D02B4FBC4654
:102D30008F016244BC46AC446746BA6047461760A0
:102D4000002932D0264AC90090466246414451606B
:102D50003F223F339343022837D0224937190A686C
:102D60007F01D3180B602049EF19FA608B422ED8EF
:102D700036197601AD19EB7E1C499B064A40134378
:102D80008022120613436A681360012080BCB84693
:102D9000F0BD174FBC468F016244BC46AC44674649
:102DA000BA6247461760002908D1002364012C1934
:102DB0006360104BE360E8E70020E7E70B4AC900D7
:102DC0009046624641445162C2E75B00C5E7FEF7A8
:102DD0004FFDFA68CCE7C046241B00208400105049
:102DE00004001050781F0020FF0F105000001050FA
:102DF000800010500001105010B504F011F910BD02
:102E000010B57F200C0020404000E409110000199B
:102E10001A00034B4001C01800F058F8012010BD03
:102E2000241B00207F23180010B508400B420BD054
:102E3000C90980224000074B401840010021C018FA
:102E4000120104F01DF910BD0223034AC9095B1ADF
:102E50009366EEE7241B0020002011507F22130010
:102E600010B50B400A4200D110BDC9095B005B18C8
:102E700004485B01C018002300220349C37004F01A
:102E8000FFF8F1E7241B0020FFF7FFFF80220A4B29
:102E9000520410B51A60094B09491A6010000B68FA
:102EA0009843FBD18022002152010648FFF71AF90E
:102EB0000922054B5A6710BD00E0004000F00040B9
:102EC00008C000400000105000001150002310B551
:102ED000C3820133828283760161040004F078F8B2
:102EE000002804D080219023074A8902D150200075
:102EF00004F07EF8002802D00123237710BD2000C3
:102F000004F0B6F8FAE7C046002011507047C046FA
:102F10007047C04600207047002070477047C04689
:102F20007047C0467047C0467047C046024B58784D
:102F3000431E9841C0B27047C4150020024B187858
:102F40004007C00F7047C046C4150020F0B5D646F4
:102F50004F464646C0B5314B07009A461B780E00D7
:102F6000FF2B01D0012044E0002941D00021542250
:102F70002B48FFF7B7F800222A4C2B4B20001A7081
:102F8000FDF734FE294B1C60294C2000143CFDF752
:102F90003BFE200001F0FAFD264B274D1C60274B1D
:102FA000002B2BD02800FFF7BBFA254B2A7818609E
:102FB00024490024894622490023884610E04346DC
:102FC0001B6862019B18002B12D05B68002B0FD08E
:102FD00098472A780134E4B2511C2300A1420FDB48
:102FE000A242ECD89B1A5B014B445B68002BEFD1EB
:102FF0000020E0BCBA46B146A846F0BD2A78D7E723
:103000005346310038001F70FFF7F8FD0028EFD05D
:103010003800FFF73BFE0120EBE7C046141000200C
:10302000C4150020BC1500205223022018160020D1
:103030000C1000201C160020502302202125001017
:1030400014140020E8740010F0B5DE4657464E46D2
:103050004546E0B5CE4B91B002931B78FF2B00D1D3
:1030600038E1CC4BCC4E9B465F46CC4B0DAC01932C
:10307000CB4B009335686A69EFF3108172B6136821
:10308000002BFCD0BFF35F8FA9612800210001F065
:10309000BFFB6A69AB69BFF35F8F0021116083F3E7
:1030A0001088002800D115E16378082BE2D89B0036
:1030B000FB589F466368002BDCD0A0689847D9E78F
:1030C0007F222179B54D0A405300EB189846C80974
:1030D000804440460123303005799D4305710579D0
:1030E00003339D430571002A00D1FAE04346AD4AFF
:1030F0001B7D1278934200D3E9E0AB4A5B0115686F
:10310000ED18002D00D1E5E0A36862792078AD6963
:10311000A847AFE7A54A1378002B00D1DAE013786F
:10312000013BDBB213701378002BA3D101229B4D1E
:1031300001212B78042013432B703423EA5C8A434B
:10314000EA54EA5C8243EA540133EA5C8A43EA5473
:10315000EA5C8243EA54237800209B4600F0A4FCFA
:10316000602223791A40602A0DD0402A00D1CAE09B
:10317000DB06DB0E012B00D120E1022B00D1DCE0CD
:10318000002B00D1CBE020780021FFF74BFE8021FF
:103190002078FFF747FE6DE7804D2B78DB0700D4E2
:1031A00068E7FFF7C1FE65E7019BDB78DB0700D42A
:1031B00060E76068FFF7ACFE5CE7784D2B78DB07D3
:1031C00000D457E728780007C00FFFF7ABFE51E7A0
:1031D0002378734999468B46724B734998468A46C1
:1031E00039001A7847460023B04600254E468946E6
:1031F00010E053461B686A019B18002B00D176E053
:10320000DB68300098473A780135EDB2511C2B004D
:103210008D4244DCAA42ECD89B1A5B015B44EFE789
:103220002378614999465F4B8A4698463100BB46F0
:103230004E461A7800250023474689460FE053463C
:103240001B686A019B18002B55D0DB68300098473B
:103250003A780135EDB2511C2B008D4207DC9542C6
:10326000EDD39B1A009A5B0194466344EDE7019D00
:10327000542200212800FEF735FF1022FF214C4880
:10328000FEF730FF28002022FF2114304E465F4613
:10329000FEF728FF00F0FEFBFFF742FEEAE63F4D97
:1032A000542200212800FEF71DFF1022FF21281DB7
:1032B000FEF718FF28002022FF21143046464F4613
:1032C000FEF710FF00F0E6FB2379AB70D2E6501C4E
:1032D000984213DA11B0F0BCBB46B246A946A046EC
:1032E000F0BDA3686279207800F0F2FBC2E64646A2
:1032F0004F462A4DE6E74E465F46CBE7284D9B1AE0
:103300005B015D1900E72B4800F0CEFB0121584618
:103310000EAAFFF7EBF8002800D0ABE633E7202A2F
:1033200000D156E1002A00D02DE76379092B00D99E
:1033300029E7214A9B00D3589F467023217A0B42EC
:1033400000D020E7C80982460F330B405B00984647
:103350001448EB1853441B7D00789946834261D38F
:10336000431C4B4500DA4EE14B461B1A5B01994664
:103370000B488144002A00D14AE14B46586900F0CD
:1033800093FB4B46012158465B690EAA9847C2E75A
:1033900014100020407400101C160020C4150020DA
:1033A000E87400105023022014140020522302203D
:1033B000C8150020ED24001064740010237A0F2B30
:1033C00000D9E0E6D74AEB181B791578AB4236D323
:1033D000691C994200DAD6E65D1BD34B6D01ED18EE
:1033E000686900F061FB012158466B690EAA984795
:1033F000002800D03EE66022150023791D401A42C5
:1034000000D0C0E663790A3B012B00D9BBE600F08F
:103410004BFB63790A2B00D18EE158460EA900F0D0
:10342000CDFA27E6C1485B01006881469944002A2D
:1034300000D1EDE04B46002B00D1A4E69DE7BB4A4E
:103440005B011568ED18002DCAD19CE6A379994659
:103450006B789945E1D06B78002B00D034E14B4676
:103460006B70002B00D12CE148460138C0B2FFF749
:1034700089FA002800D17EE143780793022B00D01F
:1034800079E10122C179B1468B11491113400A40FB
:10349000302112015B0113432A78A8468A43134363
:1034A0002B7009239A4682445646BA46C3788278DE
:1034B0001B021343C31805939A4B04939A4B08932A
:1034C0009A4B09939A4B0A93059BB34200D855E156
:1034D000737801220B2B03D13378F278F6187378C6
:1034E000042B00D044E1059B00279B1B9BB2069355
:1034F000049B0B921D78002303931BE0099A7B0128
:103500001568ED18002D00D132E1310058462B69C5
:10351000069A98478446082803D9069A824200D31F
:1035200013E1049B01371D78FFB26B1C03979F4288
:1035300000DD1DE1AF42E1D3039B5D1B089B6D01E4
:103540009C466544E1E76B780CAA0232137058463A
:1035500001230EA900F048FA8CE5E3881A0AD8B2D4
:103560000F2A00D90FE673499300CB589F460EA847
:1035700000F0A0FA5846A179FFF78EFB02222B78C3
:1035800013432B7076E5E388012B00D0FBE508227E
:103590002B78584693430EA92B7000F00FFA69E57B
:1035A000022029780CAB9A1C8B068908DB0F01409E
:1035B0000B431380584602230EA900F015FA59E573
:1035C000E388012B00D0DEE508222B7813432B7013
:1035D00023E7237A0F2B00D9D5E5EB181D79514B42
:1035E0001B789D4228D2514B6D011B685D19002D3F
:1035F00000D1C8E5686900F057FA012158466B69A7
:103600000EAA984787E6002A00D0BCE50023994619
:1036100062790220130003928343012B15D0002A04
:1036200000D0B0E52B004344534430331B790CAA3F
:103630009B07DB0F0232BCE75A1CAA4200DAA2E564
:10364000ED1A394B6D01ED18D4E7E388002B11D149
:10365000012A25D0029B1878FFF7E4FB434602219C
:10366000EB18534430331A790A4301211A711A793D
:103670000A431A714B46002B00D1FBE4586900F055
:1036800013FA4B4601215B690EAA58469847002061
:1036900000F00AFA3523EB5CDB0700D5EAE4BCE670
:1036A000029B1878FFF7DAFB43460221EB185344DC
:1036B00030331A798A431A711A7903998A431A7135
:1036C000D8E7FFF72DFCA8E600215846FFF7EEFAF1
:1036D0005846FFF791FBAB78134903930491114BC4
:1036E000124998461A780591002329001D008A4640
:1036F00010E0059B6A011B689B18002B57D0DB6804
:103700005846984743461A780135EDB2511C2B00B4
:103710008D4238DC9542ECD39B1A049A5B019446A7
:103720006344ECE750230220E874001014140020D6
:10373000D81500208C7400100CAB9A1C584601233D
:103740000EA9157000F050F994E40B9A012A4FD09D
:10375000002A3CD00023B07804E00133DBB20F71C3
:10376000934234D21918C9B241440D79FF2DF4D0D7
:103770004E464546574600236B7004E54E46574675
:10378000FFF7CCFB49E65546542200212800FEF7FE
:10379000A9FC1022FF21281DFEF7A4FC28002022EE
:1037A000FF211430FEF79EFC039BAB7057E6554695
:1037B000FAE7FEF797FE021E00D1E4E4D378917891
:1037C0001B020B4358460EA900F00EF9A3E565460F
:1037D0003B002A0031000A9800F08AFEAC46049BA8
:1037E000039A1B7866440133934200DB6CE6BFE723
:1037F000164B29699942ADD1079AABE7FFF78AFBCF
:10380000021E00D1BFE4584613780EA900F0ECF870
:1038100081E52189FFF7BAF8021EF4D1B3E4022A48
:103820000FD0FFF779FB021EC8D1ACE4FFF7A6F872
:10383000021E00D1A7E4122358460EA900F0D4F8C6
:1038400069E5FFF79FF8021EB8D19CE4B13E001075
:10385000F8B557464E46DE4645460C00E0B5160024
:103860001F00002A3CD01F4B00259A467023994622
:103870001D4B9B4617E05B462000997800F0FAFD4F
:1038800000281FD021004046FFF72CFA002819D04D
:10389000A378DA09012A1CD00A9A0135137023781B
:1038A000E418B5421CDA6378052B0BD1E3789B074B
:1038B0009B0FBB4206D153464A461B789846A378D5
:1038C0001A42D8D00020F0BCBB46B246A946A0465A
:1038D000F8BD0B9A013513702378E418B542E2DB8A
:1038E0000120F0E714100020C4150020702270B5EC
:1038F000094B0C001D788B781A4201D0002070BD56
:10390000064B2000997800F0B5FD0028F6D0210084
:103910002800FFF7E7F9F2E714100020C415002093
:103920000B007F2010B51840DB0934334000044AF7
:10393000C018044B1168C01800F058FD10BDC046F7
:1039400018160020C41500200B007F2010B5184069
:10395000DB0934334000044AC018044B1168C01816
:1039600000F06CFD10BDC04618160020C4150020E4
:1039700070B57F240F480C4064000419CD09641908
:1039800030342079C00701D5002070BD012625798B
:103990000948354300782571FFF732FA0028F4D141
:1039A00001222379934323712379033293432371B3
:1039B000EAE7C046C41500201410002070B5094C79
:1039C0000600082220000D00FEF792FB0023802154
:1039D000E360A3602B783000994300220023FFF7B7
:1039E000C7FF70BDA4150020F8B5CE4647469046E7
:1039F000264E80B58146082230000D001F00FEF7DC
:103A000077FB4346B3600023F381EC79AB79240262
:103A10001C43231CBC4200D93B1C9FB2B381002C29
:103A20000ED0002F18D04346002B2CD03B1C402F2B
:103A30001BD89FB233787F2B1CD80021144A0FE08B
:103A400080212B780022994348460023FFF790FFFE
:103A5000C0BCB946B046F8BD7F23002231789943F7
:103A60003B004846FFF784FFF2E740239FB23378DC
:103A70007F2BE2D9064C3A0041462000FEF738FB86
:103A800080212200ECE70020E2E7C046A4150020D8
:103A90006415002010B5142200210248FEF722FB15
:103AA00010BDC046A4150020014B18617047C046E8
:103AB000A415002010B5054C010008222000FEF7D7
:103AC00017FB0023A360E36010BDC046A4150020CF
:103AD00070B5384C1D0023780600DA09C9098A42FE
:103AE00010D00020002D00D070BD21003000FFF765
:103AF000EBF82369002B03D0220003213000984704
:103B00000120F1E77F2B06D8A068002834D02A00D6
:103B10002949FEF7EDFAE289A1685219E38892B2C9
:103B20004919E281A160934214D03F2D12D9A38993
:103B3000981A051C80B240282AD82078ADB27F2878
:103B400028D800219A4232D01B4A2B003000FFF7C0
:103B50000FFFC9E72369002B05D0220002213000A6
:103B6000984700280AD0802123780022994330000A
:103B70000023FFF7FDFEB7E70020B5E70021300086
:103B8000FFF750F930008021FFF74CF90120ABE737
:103B90004025D2E79A4207D0074C2A002000FEF7C2
:103BA000A7FA80212200D0E780210022CDE7002261
:103BB000CBE7C046A41500206415002070B50500B1
:103BC000FFF7B4F9002800D170BDFFF7B7F900285E
:103BD000FAD1C8236B43124CE618F1780029F3D0D0
:103BE00010331C19200000F0FDFD3F28ECD9002007
:103BF000F178FFF795FE0028E6D0200000F0F2FDF6
:103C00003F2808D9074BEA01D218F1784023002059
:103C1000FFF7AEFED8E7F1780020FFF795FED3E777
:103C20009C1400201814002010B50400FFF77EF942
:103C3000002801D1002010BDFFF780F90028F9D13C
:103C4000C8226243024B01309B181B791840F2E7EF
:103C50009C140020C82310B543430248181800F0F4
:103C6000A3FD10BDAC140020F0B5C824C6468023C7
:103C700044431F4F1034050000B53C195B029A42C3
:103C800000D31C4A200092B200F010FE8046FFF7DD
:103C90004DF9002803D1404680BCB846F0BDFFF77F
:103CA0004DF90028F7D1C8266E43BE19F378002BD2
:103CB000F1D0200000F096FD3F28ECD90020F178EB
:103CC000FFF72EFE0028E6D0200000F08BFD3F28F5
:103CD00008D9094BEA01D218F17840230020FFF7F8
:103CE00047FED8E7F1780020FFF72EFED3E7C04665
:103CF0009C140020FFFF000018140020F8B50600F7
:103D0000FFF714F9002801D10020F8BDFFF716F9DC
:103D10000028F9D1C82474432500134F2435ED1928
:103D2000280000F041FD0028EED03F190020B978AE
:103D3000FFF7F6FD0028E7D00C4BF401E418210052
:103D40002800402200F0B2FDB978051E08D003001B
:103D500022000020FFF70CFE0028D5D02800D4E771
:103D60000020FFF7F1FDCFE79C140020581400203D
:103D700070B5C82444430C4B0500E41880235B0253
:103D80009A4200D3094A200092B200F047FE060092
:103D9000200000F009FD3F2801D8300070BD280048
:103DA000FFF7ACFFF9E7C046C0140020FFFF00009A
:103DB000C82310B543430248181800F013FD10BD86
:103DC000C0140020F0B50025184C83B0C822002193
:103DD0002000FEF787F9164B21001D70FF23637149
:103DE000E1235B02A360200008234022A373383143
:103DF0000095073B103000F0A1FC270001232100B3
:103E000020002600402278310093B837243000F09B
:103E100095FCC0363800FCF7E9FE3000FCF7E6FE02
:103E2000E56127622663656303B0F0BD9C14002042
:103E3000981400200A4B196B1A6A002909D0002A2D
:103E40000CD000221A621A63DA6100225A63012040
:103E50007047002AFBD0D9611962F8E71A63F4E7CA
:103E60009C14002070B50F4C052200212000FEF7A5
:103E700039F90D4D2B78DA0707D50C4C9B070CD57B
:103E80000121200000F0A2FE70BD2000103000F0E3
:103E90007DFE2B78054C9B07F2D4200000F076FEC7
:103EA000EEE7C0469C14002098140020C0140020A7
:103EB000F0B54B79060083B0022B02D18B79022B2F
:103EC00003D00025280003B0F0BD214FBB78002BA4
:103ED000F7D18B7809253B700C780C196378242B6B
:103EE0000BD1082A02D80FE0AA420DD32378E41898
:103EF0005D196378ADB2242BF6D0052B08D0042BC6
:103F000002D163790A2B11D00020FFF757FED9E7C1
:103F100021003000FFF7EAFC0028D2D0A3787B70A4
:103F200023785D19E4186378ADB2E8E7094B277888
:103F3000019301330093022202233000E119FFF7BD
:103F400087FC0028BDD00E35ED19ADB2DCE7C046C8
:103F50009C1400209E140020F8B5602314001278F1
:103F6000050013400020202B07D1304A63792779C0
:103F700016781B023B439E4200D0F8BD6378222B8B
:103F800028D007D8202B17D0212BF6D1012944D0D7
:103F90000120F2E7232BF0D1012938D00329F7D1F2
:103FA000234B002BF4D0E178A378090200201943B9
:103FB00000E000BF0120E0E701292ED00329E7D16E
:103FC0001C4B002BE4D0083200201100FEF7AEFAA3
:103FD0000120D2E701291AD00329D9D101252E00C9
:103FE000A378E478023924021C4314712640243259
:103FF0001000714000F0EAFD0F4B002BC8D06208A2
:10400000002031002A4000E000BF0120B5E7210078
:104010002800FFF7D3FC0120AFE707232100280089
:10402000064AFFF7E1FC0120A7E7C0469C140020E8
:10403000000000002D25001000000000A414002046
:10404000F0B54F464646D646364DC0B5EA781F0015
:1040500080460C00AB788A423BD08B4210D00020C7
:10406000E0BCBA46B146A846F0BD2F4B002B04D0A9
:104070002E4800F0AFFB002851D00020FFF79EFD36
:10408000AB78A34201D00120EAE7294B002B02D0F4
:10409000002000E000BF0020FFF730FE0028F2D132
:1040A000244C200000F080FB0028ECD1002FEAD047
:1040B000BF06E8D1243C4046A178FFF731FC002838
:1040C000E1D0002300224046A178FFF751FC0120F7
:1040D000C6E710239A46184EAA4431005046BAB299
:1040E00000F09CFC154B002BBFD06B79FF2BBCD094
:1040F000002FBAD0F219914603E00136B145B4D091
:104100006B7932789A42F8D1504600F063FB002870
:10411000F3D15346103B597900E000BFEDE700E0D2
:1041200000BFAAE79C14002000000000AC1400208F
:1041300000000000C014002018140020000000003F
:104140009322F0B5134C85B0002120009200FDF7BA
:10415000C9FF23002000802640270F4D4D337600F5
:10416000FF3329300295009300220023002103979A
:104170000196FF3000F0D6F94035201D2834002389
:1041800001220021039702950196009400F0CAF9DC
:1041900005B0F0BD68170020E816002010B5054CEA
:1041A000200000F0F5F920002538FF3800F0F0F984
:1041B000012010BD9018002070B5084C002520008B
:1041C0003130FF30257000F0E1FC20000C3000F0B1
:1041D000DDFC2A23FF33E554657170BD68170020AC
:1041E000F8B557464546DE464E46E0B54B79804623
:1041F0000F00FF2B27D1424B0C7899462A234946C2
:10420000FF33CB5C002B1ED14E79002E1BD1BB7827
:104210003C190B703B79002B12D098235B004B4468
:104220009A460C234B449B46A5186378052B05D171
:1042300010E02378E4186378052B0BD0AC42F8D358
:10424000E01B80B200E00020F0BCBB46B246A946AD
:10425000A046F8BDA542F3D921004046FFF746FB32
:104260000028F0D0A3780136F6B2DB09012B29D063
:10427000504600F08BFC2A234946A278FF33CA54EB
:10428000637922791B0213431E4A5B0594465B0D3A
:10429000942163445A4253414A4602204900525CE9
:1042A0005B00824313434A46535451464046083903
:1042B00000F0D6F90028C6D02378E4183B79B34241
:1042C000B3D8BDE7584600F061FC5A46A3780C3AD3
:1042D0005371637921791B020B430A495B058C46B4
:1042E0005B0D634459424B41022011795B008143CD
:1042F0000B43594600200839137100F07FF9DBE7C2
:104300006817002000FEFFFF70B505002A201F4C33
:10431000FF30205C1E006379884203D000208B426E
:104320001DD070BD9A235B00E35A002B0DD1184BB2
:10433000002B04D000201749B2B200E000BF2800D3
:10434000154900F08DF90120EBE72000962331306C
:104350005B00E158B2B2FF3000F060FBE7E70F4BC3
:10436000002B04D031040020090C00E000BF0C4CED
:104370002800210000F042F90028E4D13200210099
:10438000280000F007F90120CBE7C046681700209D
:1043900000000000E8160020901800200000000037
:1043A0006C17002000B5030083B0002910D0002056
:1043B000012B07D80A78002A04D00B48C2540120E8
:1043C000012A01D003B000BD1800FEF7BFFDF9E7D8
:1043D000012301A900200B80FEF7B8FD0028F1D0D1
:1043E0000122014B1A70EDE7B8150020037870B573
:1043F000DB0704000E00DD0F002B17D103785B07ED
:1044000001D5280070BD01213000494202F020FE94
:104410002378DB07DD0F002B0AD123785B0708D454
:104420000422237801251343237002E00025E8E7E6
:104430000025300002F0E4FDE3E7C04670B50C0053
:10444000012106004942200002F002FE33785B079A
:10445000DD0F002B04DB200002F0D2FD280070BD30
:104460003378DB0704D40422337893433370F2E7C4
:104470000025F0E7437902791B0213435B055A0DCF
:10448000C3789B079B0F022B05D0032B15D0002070
:10449000012B08D0704702291ED0002040239342F0
:1044A0004041C0B2F6E702394B4259410D4B9C46A0
:1044B000614491424041C0B2ECE702394B1E994140
:1044C000094B494219408023DB009C46002061448F
:1044D00091424041C0B2DDE7044BD01843425841FD
:1044E000C0B2D7E7FF03000040FCFFFF00FEFFFF64
:1044F0008A1870B5914207D27F264C78052C04D0DB
:104500000C7809198A42F8D870BD34008D782C4097
:1045100064000419ED0963550C7809198A42ECD836
:10452000F2E7C046F0B5C64600B582B0150008AA4D
:1045300040CA040017880BAA1288012090460A007E
:104540002178024081432000114321703A000093FA
:1045500031000123083000F0F1F8002E01D0002FC7
:1045600008D10A9B012063604346638002B080BC8F
:10457000B846F0BD26001C363000FCF737FB0023A0
:10458000002D01D0330000266361A661E9E7C04633
:1045900001207047F8B502240B7807001C406342E5
:1045A0005C41144B64421C40134B08009C4608308D
:1045B0000D001600644400F0F7F8002807D1002E23
:1045C00005D0344203D101242B781C4201D00020B5
:1045D000F8BD38006978FFF7A3F90028F7D02B78E9
:1045E0001C42F4D10023002238006978FFF7C0F99B
:1045F000EEE7C04640FEFFFFFF010000F8B50D00EA
:104600000835060028000C0000F0CEF8002803D082
:10461000012723781F4201D00020F8BD30006178C7
:10462000FFF77EF90028F7D028006288616800F063
:104630003DF92378051E0BD01F42EDD103006268BF
:1046400030006178FFF794F90028E5D02800E4E70E
:104650001F42E1D130006178FFF776F9DCE7C04610
:10466000F8B5CE46474680B58B8905000C00002B77
:1046700008D101260B781E4240D00020C0BCB946AC
:10468000B046F8BD0B789B0734D5FE2380261B026D
:104690009946B60027000837380000F0A3F8864294
:1046A000EBD80122237890461A42E6D1280061789F
:1046B000FFF736F90028E0D0380000F093F8864282
:1046C00031D84146237862881942D6D14B460340FF
:1046D0001E1C934200D9161CB6B200226178002E2F
:1046E00000D0626833002800FFF742F90028C4D0E8
:1046F0003000C3E7104B40269946CBE74978FFF7D7
:104700000FF90028B9D0227863881642B5D100226B
:104710006178002B00D062682800FFF729F9002893
:10472000ABD06088AAE7424623781A42A5D1280078
:104730006178FFF709F9A0E7C0FF0000F0B5C646B1
:1047400000B5040006A805788020884617001E00E2
:104750000002824226D8E068002803D001214942A5
:1047600002F076FC2069002803D00121494202F0C2
:104770006FFC4346236073045B0CED031D43002371
:10478000E0686381A780E5802381002801D002F0E2
:1047900037FC2069002801D002F032FC012080BCE7
:1047A000B846F0BD0020FAE710B504894189828837
:1047B000A3B288B28C4207D31B1A9BB2101C9A4238
:1047C00000D9181C80B210BD5100091A5B189BB2A9
:1047D000F4E7C04603894089181A43425841C0B2E1
:1047E0007047C04610B5048941898288A3B288B257
:1047F0008C4207D31B1A9BB200209A4201D9D21ACD
:1048000090B210BD5100091A5B189BB2F4E7C04684
:1048100070B5040000690E00002803D00121494250
:1048200002F016FC25896089A288A9B283B285426C
:104830002BD3CD1AADB2002D2DD0AA4208D2914271
:104840002FD3891A8BB263819A4203D89B1A9BB2E9
:104850009A42FBD9E28821685204520C534330003B
:10486000C918FDF745FC63890125591C89B2A28846
:104870008B4212D95200891A89B2206961810028BD
:1048800001D002F0BDFB280070BD5500ED1A4D1996
:10489000ADB2002DD1D1618989B252009142ECDBD9
:1048A000E9E789188BB26381CEE7C046F0B546468A
:1048B0004F46D646C0B50600006989469046002896
:1048C00003D00121494202F0C3FB31897289B588C6
:1048D0008BB294B2914254D31F1BBFB2002F4AD067
:1048E000BD4205D2AB4251D25B199CB22F007481FC
:1048F0004346B8453DD89FB2A54203D8641BA4B235
:10490000A542FBD9F28831685204520C90466243AA
:104910002B1B9BB2891842469F4225D953439BB219
:104920001A0048469A46FDF7E3FB434648467D1B7E
:1049300064195C4331685044A2B2FDF7D9FB718918
:10494000B588CB199BB26A00994216D99B1A9BB2C3
:1049500030697381002801D002F052FB3800E0BCBE
:10496000BA46B146A846F0BD48467A43FDF7C0FBBB
:10497000E5E73B1CBFE773899BB26A009342E7DB24
:10498000E4E76F003F1BDF19BFB2A7E75B1B9CB2D8
:10499000ACE7C046F8B50400C0680E00002803D09C
:1049A0000121494202F054FB258920896189A288AE
:1049B000ADB283B28FB2884228D3DB1B9BB29A423E
:1049C00009D8E779FF0906D1E068002801D002F094
:1049D00017FB3800F8BD2B00954203D39B1A9BB2FE
:1049E0009342FBD2E28820685204520C53433100B8
:1049F000C018FDF77DFBA2886B1C9BB252009D4244
:104A000009D99B1A9BB201272381DDE75100C91BFD
:104A10005B189BB2D3E79342F5DBF2E7F0B545466E
:104A2000DE4657464E46E0B588460500140083B082
:104A3000002A6FD0C068002803D00121494202F04B
:104A400007FB2E89EB796A89B6B292B2DB0940D1B5
:104A5000AB88964267D259008A1AB21892B20027E0
:104A6000934230D99A1A171C92B2A24200D9271C3D
:104A7000EA88BFB25204520C9146F21992B29246A1
:104A8000FA1A92B2934634009E4203D3E41AA4B2B7
:104A90009C42FBD24A46624328681B1B9BB280188B
:104AA0004A46BB4253D341467A43FDF721FBAB88CC
:104AB0005B00564501D89A4503DB5246D31A9BB298
:104AC0009A4653462B81E868002824D002F098FAD1
:104AD00021E0AF88BC4229D296424AD3B31A9BB296
:104AE00079001B198B4208DBD3199BB21E1BB6B28F
:104AF0009A46B24242D9761AB6B2EB885B045B0C96
:104B00009946A3199BB29A46E31B9BB29B463B0076
:104B10002700B8E70027380003B0F0BCBB46B24618
:104B2000A946A046F0BDB21A92B298E7002FCAD0AB
:104B3000EB88E41B5B045B0C5C4399461600D319BD
:104B400000229BB29A4693463B00A0449BE7534306
:104B500099B20A0001915C444146FDF7C9FA22006E
:104B60004B465A430199286892B24144FDF7C0FA76
:104B70009DE779008B1AF3189BB2B2E7B142BADD18
:104B8000EB885B045B0C9946BEE7C04610B5040099
:104B9000C068002803D00121494202F059FA206977
:104BA000002803D00121494202F052FA0023E068B4
:104BB00063812381002801D002F022FA20690028B5
:104BC00001D002F01DFA012010BDC04670B50400EE
:104BD000C0680D00002803D00121494202F038FAD4
:104BE0002069002803D00121494202F031FA7F21D7
:104BF000E379ED011940E0682943E171002801D013
:104C000002F0FEF92069002801D002F0F9F9012034
:104C100070BDC046F0B5C646431E00B50A3315D870
:104C2000072304001A0008342240234200D170E018
:104C30001300093BA34209D31030841A01F030FA63
:104C4000394A27001568002D28D10EE001F028FA16
:104C5000354A1368002B06D0002501F029FA2800F8
:104C600080BCB846F0BD0027002407212F4B194215
:104C700047D18021180089025D1800212C4E083D83
:104C8000716030600726B54315602A4AEB1A13603D
:104C9000294A69602960136043600560002FDBDDED
:104CA000254F3E68A642D7D32148036804E01A681E
:104CB000002A04D0180013005968A142F7D3AB4270
:104CC000CAD01D001A680835904602600A1B102AD7
:104CD00005D919194A6042460A6001602100154A47
:104CE000761A10683E60864200D216608022120654
:104CF0000A435A6000221A60104A13680133136095
:104D0000ABE78025D81DAD025D1903008B43180069
:104D1000B3E701F0C5F9044A27001568002DA4D0B7
:104D2000002CBDDA98E7C046A81F002050220020C2
:104D300010230220E0220220D4220220EC220220B2
:104D400070B5002807D0083843680400002B02DA49
:104D50000268002A00D070BD5B005B08436005005C
:104D600001F09EF9154A616813685B181360144BD3
:104D70001A001B689C42FBD850681618B4420DD02C
:104D80006018834210D02360AA4200D015600D4AFB
:104D900013680133136001F08BF9DCE70918501830
:104DA00051608342F3D1150007480068834203D065
:104DB00058684118186869602860E5E7D422022025
:104DC00010230220F0220220A81F00200000000073
:104DD0000B4A13681868203080F30988022080F39A
:104DE0001488BFF36F8F3FBCAE4608BC04BC62B6EC
:104DF0001847C046C046C046C046C046C046C0462A
:104E00009C1F0020000000000000000000000000C7
:104E1000EFF30980164B1A6820381060F0C0444642
:104E20004D4656465F46F0C00D221207146E556E71
:104E3000566F176F3038F0C008B572B601F05CFAE3
:104E400062B60CBC116808681030F0C8A046A946CC
:104E5000B246BB4680F309880D2212073038F0C8ED
:104E60001466556656671767F0C81847C046C046AF
:104E70009C1F002010B5FBF7D3FBC046D02300B524
:104E80001B061A6D83B0D20704D501219A6D1A6DE5
:104E90001142FBD1D023FF221B061A650023114AC1
:104EA00001931168EFF3108C72B60B68002BFCD0E5
:104EB000BFF35F8F00230C48126801680360BFF3E3
:104EC0005F8F13608CF31088084B01AA186800F0FC
:104ED00001FB019B002B03D08022054B52051A6079
:104EE00003B000BD981F002068220220D0220220BB
:104EF00004ED00E07047C04610B58024031F640431
:104F00001C60043B19600349043B1960143B4038A2
:104F10001A6010BD754E00108022044B52051A60B5
:104F2000BFF34F8FBFF36F8F7047C04604ED00E0B3
:104F300072B6044A136801331360BFF34F8FBFF397
:104F40006F8F704764220220034A1368013B13608D
:104F5000002B00D162B6704764220220EFF310806C
:104F600072B6704780F310887047C04610B5FFF7DF
:104F7000F5FF040001F0AEF9002803D08022034BB6
:104F800052051A602000FFF7EDFF10BD04ED00E0B0
:104F9000002310B5084A094C052023601360FCF774
:104FA0005FFBFA218900FCF741FD054B01381860D1
:104FB0000723236010BDC04618E000E010E000E0C9
:104FC00014E000E0FF221F4B1204196810B50A43D9
:104FD0001A60FF22196812060A431A601A490E2045
:104FE00001F05CFE19490F2001F058FE18490B2012
:104FF00001F054FEFFF7CCFF0022164B1A60D023BD
:105000001B06154A1C681470FF221A651A6DD20718
:1050100004D501219A6D1A6D1142FBD10F34FF2185
:105020002000FBF723FD20000C49FBF7FBFB0121CF
:105030002000FBF7BFFBFFF7CBFE01F05DF9FBF7AC
:10504000EFFAC04620ED00E0114E00106D4F001049
:10505000F54E001064220220151000207D4E001035
:10506000D02310B51B061868074B1B78834200D06D
:1050700010BDEFF30583002B02D05B00C018F7E7EB
:1050800001F094FBF4E7C0461510002000B5174A64
:1050900003001078D0221206126883B0904209D023
:1050A0001B68BFF35F8F00221A6081F3108820BF56
:1050B00003B000BD1A68BFF35F8F0020106081F35A
:1050C00010880B4A1B6810680A4A944663449A1079
:1050D0005C2B00D9183A012301215B4291400093D7
:1050E0000122002300F052F9E2E7C046151000202B
:1050F000D022022000FFFF2F0A002C4930B58C4639
:10510000036883B063449C105C2B00D9183C0121D8
:10511000274BA1401C78D0231B061B689C421FD044
:1051200040BF244D03682C68A34234D02368002B71
:10513000FCD0BFF35F8F204C23680B4323602B68A8
:10514000BFF35F8F002119600368D02000210006A3
:105150004165BFF35F8F196082F3108803B030BDE3
:1051600040BF0368BFF35F8F0020186082F3108890
:10517000EFF30583DBB2002B12D0104B019001AA94
:10518000186800F0A7F9019B002BE7D080220C4B98
:1051900052051A60E2E7084C206808432060D4E713
:1051A000064B186800F04EF9D8E7C04600FFFF2F05
:1051B00015100020981F002068220220D022022013
:1051C00004ED00E0F0B5CE46474680B51D00364BF5
:1051D00014001A78D0231B061B688046894683B0CA
:1051E0009A420FD00368BFF35F8F00221A6081F3E9
:1051F000108820002900FCF79BF803B0C0BCB9461A
:10520000B046F0BDFCF724F926002F000123361A22
:105210008F41264A5B42B6185F41002F20DC1BD02D
:1052200043461B68BFF35F8F00221A6089F3108822
:105230001F4B5A6A954205D89B6A0120A342DCD2D3
:105240009542DAD180221B4B52051A60BFF34F8F73
:10525000BFF36F8F0020D0E7FA239B009E42DFD37D
:10526000FA220023300039009200FCF705FC031EEF
:10527000D6D042461268BFF35F8F0021116089F3D8
:1052800010880D4A0D49106842468C4612686244E7
:1052900096105C2A00D9183E01210093B1400023EA
:1052A000012200F073F8C3E71510002018FCFFFF7F
:1052B0000040054004ED00E0D022022000FFFF2F57
:1052C00010B5FBF739FA054A054B94466044800057
:1052D000186000F04FF8034B186010BD4000003418
:1052E000981F0020D0220220F8B5DE4657464E46D1
:1052F0004546E0B505000F00060000F0D1FE296824
:105300002C6939430C362960A6422AD000239846DE
:105310008023DB049B4680235B049A4680239B0406
:1053200099460EE019420AD057463A4202D0424608
:105330001A4390464B46194301F0A2F92968A64248
:105340000DD020005F460268646813021B0A3A42CF
:10535000E8D00F001F40BB42E6D0A642F1D1434641
:105360009943296000F0A4FEF0BCBB46B246A946B2
:10537000A046F8BD10B51C20FFF74CFC041E03D05E
:10538000002308C000F0B2F8200010BDF0B5C646FA
:10539000060000B50D0090461F0000F081FE346845
:1053A000002F13D125420BD04346002B0BD02300F6
:1053B000AB43336000F07CFE200080BCB846F0BDFB
:1053C000069B002B21D100F073FEF5E72B00234054
:1053D0009D42E9D0069B002BF5D0434680215A1E02
:1053E0009341C9041B061943069A2943301D01F055
:1053F00011F800F05DFE00281CD001F00FFA040047
:10540000830107D52402240AD6E741464B1E994161
:105410000906E9E7FFF78CFD3468002F0DD12C4217
:1054200005D04346002B02D02300AB433360FFF787
:105430008BFDE7E7FFF770FDDFE723002B409D4280
:10544000F5D1EEE7F8B5DE4657464E464546E0B59F
:1054500006000D00070000F023FE336834691D4389
:105460000C373560A7422AD0002399468023DB04FD
:10547000984680235B049B4680239B049A460EE05B
:105480001D420AD059460A4202D04A461A43914662
:105490005146294301F0F4F83568A7420DD02000A9
:1054A00041460268646813021B0A0A42E8D02900D8
:1054B00019409942E6D0A742F1D14B469D43356051
:1054C00000F0F6FD2800F0BCBB46B246A946A04657
:1054D000F8BDC04610B5044C13000A0001002000BE
:1054E00001F0C8FB10BDC046E952001003000833AC
:1054F00001224360C3600361002352428260036063
:105500007047C046002303617047C046030030B5B2
:105510000D6808336A1C0DD01C005B681A68AA422B
:10552000FAD94B60996003688C600133616008614F
:10553000036030BD04696368F3E7C04603694168EE
:1055400082688A6051605968814205D000220261F8
:1055500018680138186070475A60F7E7F0B5DE4602
:105560004E4657464546E0B585B00600FFF7E0FCDD
:105570004523F45C64B2002C21DD213B99462133A4
:105580009A46B14409E0AA6BEB6B03969A4245D365
:10559000013CE3B264B2002B11D0B56C002DF2D106
:1055A000736A002B0BD0484601F002F80028EFD0B8
:1055B00001F0F6F8013CE3B264B2002BEDD14523D3
:1055C000FF22F254FFF7C0FCFFF7B2FC4423F45C67
:1055D00064B2002C16DD3500103504E0013CE2B267
:1055E00064B2002A0ED03369002B0BD0280000F0E3
:1055F000DFFF0028F2D0013C01F0D2F8E2B264B241
:10560000002AF0D14423FF22F254FFF79DFC05B09D
:10561000F0BCBB46B246A946A046F0BD53462A6C34
:10562000EF5CAB6B7FB29846002A14D12B689B4687
:10563000002B2CD043460133AB637B1C1DD16B6A1E
:10564000002BA5D02800243000F0B2FF00289FD006
:1056500001F0A6F8AEE7686803A9FCF749FD6B689E
:105660002A6C9B18AA686B609342E3D32B686B602B
:1056700043460133AB637B1CE1D000F025FEB8420A
:1056800000D885E7452301377FB2EF5480E7A8684B
:1056900001F092F85B46AB60434601330190AB6387
:1056A0007B1C09D16B6A002B0FD1019B002B00D111
:1056B0006EE701F075F87DE700F006FEB842F4D918
:1056C000534601377FB2EF54EFE72800243000F053
:1056D0006FFF0028E9D06BE7F0B5C64600B5846CD3
:1056E00082B0A26BE36B002501909A4204D328009C
:1056F00002B080BCB846F0BD4523226CE65CA76BC7
:1057000076B2002A1CD0606801A9FCF7F1FC63683E
:10571000226C9B18A2686360934201D32368636084
:1057200000250137A763731C15D1636A002BDED0F7
:105730002000243000F03CFF0028D8D00125D6E717
:1057400023689846002BEBD1A06801F035F843465A
:105750000500A360E5E700F0B7FD8642C7D2452308
:10576000013676B2E654C2E7F8B505000E00170020
:10577000002841D0030C0A0C002B42D1002A30D162
:10578000300068430300553336D85430FFF742FAEF
:10579000041E31D00300002E31D12360E56326645E
:1057A000FFF7C6FB216CE36B22684B43D0185B1AF2
:1057B0006260D218E260FF2300254422A06020002E
:1057C000A563A3540132A3541030FFF78FFE2000CD
:1057D0002430FFF78BFEFFF7B7FB5023E754A56497
:1057E0000BE0131CA9B2B2B24A4380B29BB243434E
:1057F000120C9B181B0CC3D000242000F8BD54339E
:10580000CBE7002AF8D1301CECE7C046F8B54E468D
:10581000DE46574645460400E0B591461D000F00A0
:10582000FFF79CFBA26BE36B06009A422CD300238C
:105830009846022D09D03000FFF794FB4046F0BC9B
:10584000BB46B246A946A046F8BD4533E35C226C90
:105850005BB29846A36B9A46A36B9B46002A3AD14B
:105860002768002F65D05B460133A36343460133AD
:1058700027D1A36C002B42D0022D4AD15346002BD6
:1058800047D001239846D6E74523E35C226C5BB200
:105890009846A36B9A46A36B9B46002AE0D0002D46
:1058A00019D139006068FCF723FC6368226C9B18EF
:1058B000A26863609342D6D3236863605B4601337A
:1058C000D3E700F001FD8045DBD24346452201339A
:1058D0005BB2A354D5E73900E068FCF709FC226C01
:1058E000E36851429B1A2268E360934202D2A368A4
:1058F0005B18E3605B46022D17D00133B5E7636A9E
:10590000002BBED02000243000F052FE002805D12C
:10591000B7E72000FFF7E0FE0028B2D04B46002B8F
:10592000AFD001234A461360ABE7002B9DD1013372
:105930009BE7A06800F040FFA76094E7F0B54746FA
:10594000CE46040080B585B088460192FFF7F0FA94
:10595000A76B002F5FD1019B002B3BD002A800F06A
:10596000D9FE0023442699464525FFF7EDFA00F0BD
:1059700097FBFFF7DDFAA35D5BB2013301D14B4624
:10598000A355635D5BB2013301D14B466355FFF70D
:10599000DBFA01A902A800F0C9FE002822D1FFF716
:1059A000C7FAA36B002B2AD1FFF7CEFA200001998A
:1059B000243000F0DFFC2000FFF7D0FD00F078FB82
:1059C00000283DD0FFF7B4FAA76B002F23D1019B2D
:1059D000002BCAD1FFF7B8FA002005B0C0BCB94609
:1059E000B046F0BD2000FFF7B9FD00F061FBFFF706
:1059F0009FFAA36B002BEDD0FFF7A6FAE2E7FFF7C3
:105A0000A3FA2000FFF7AAFD00F052FBFFF790FA7F
:105A1000A76B002FDBD0226C002A08D0E168A368B6
:105A20008918E16099420ED24046FCF761FB236978
:105A3000013FA763002B09D1FFF786FA0120CCE7CD
:105A4000FFF76AFABEE72168E160EDE72000103059
:105A500000F0AEFD0028EFD0FFF75EFAECE7C0469D
:105A600010B5002933D0424B5A68904200D173E000
:105A70001A68002A2CD0DA68904200D176E09A6841
:105A8000002A3ED05A69904200D16DE01A69002A7E
:105A90003DD0DA69904261D09A69002A3DD05A6AB5
:105AA000904242D01A6A002A43D0DA6A904257D014
:105AB0009A6A002A43D05A6B904253D01A6B002A3C
:105AC00043D0DA6B904245D09A6B002A2AD010BDA1
:105AD000DA6890424AD05A69904245D01A00DC698F
