:020000041000EA
:1000000000B5324B212058609868022188439860DF
:10001000D860186158612E4B002199600221596106
:100020000121F02299502B49196001219960352056
:1000300000F044F80222904214D00621196600F024
:1000400034F8196E01211966002018661A6600F04E
:100050002CF8196E196E196E052000F02FF8012189
:100060000842F9D1002199601B49196000215960AB
:100070001A491B48016001219960EB211966A021F2
:10008000196600F012F800219960164914480160C1
:100090000121996001BC002800D000471248134993
:1000A000086003C880F30888084703B5996A0420EC
:1000B0000142FBD001200142F8D103BD02B5186610
:1000C0001866FFF7F2FF186E186E02BD00000240BE
:1000D000000000180000070000035F00212200005C
:1000E000F4000018222000A00001001008ED00E03C
:1000F00000000000000000000000000074B24E7A12
:1001000000200420F7010010C3010010C5010010F9
:10011000C1010010C1010010C1010010C101001097
:10012000C1010010C1010010C1010010C701001081
:10013000C1010010C1010010C9010010CB01001065
:10014000CD010010CD010010CD010010CD01001037
:10015000CD010010CD010010CD010010CD01001027
:10016000CD010010CD010010CD010010CD01001017
:10017000CD010010CD010010CD010010CD01001007
:10018000CD010010CD010010CD010010CD010010F7
:10019000CD010010CD010010CD010010CD010010E7
:1001A000CD010010CD010010CD010010CD010010D7
:1001B000CD010010CD010010CD010010CD010010C7
:1001C00000BE00BE00BE00BE00BE00BEEFF3058054
:1001D000103800BEF2EB8871D4170510F81705101F
:1001E0003802001090A31AE71E481F49086006C88D
:1001F00081F3088810471D480068002801D019487D
:10020000F3E70DA40ECC002902D000F012F8F9E7B4
:100210001749184A002000E001C19142FCD116495B
:100220008847164988471649884700BEFDE701C937
:1002300001C29A42FBD37047F8170510C000002096
:10024000782A0020B041051000000420000004209E
:10025000B041051000100420001004200000000030
:10026000704700000000000008ED00E0000000D032
:10027000782A00208C540220D9600010210300103D
:1002800099600010F8B5C0460448054B10B583428C
:1002900003D0044B002B00D0984710BD782A0020D3
:1002A000782A00200000000006480749091A8B1030
:1002B000C90FC91810B5491003D0044B002B00D04A
:1002C000984710BD782A0020782A002000000000FE
:1002D00010B5074C2378002B09D1FFF7D5FF054B4C
:1002E000002B02D0044800E000BF0123237010BDA2
:1002F0000031002000000000B06F0410054B10B565
:10030000002B03D00449054800E000BFFFF7CCFFF5
:1003100010BDC0460000000004310020B06F041082
:1003200010B582B006F060F8012480220F4B10490E
:100330000193920000230F48009409F067FF802288
:100340000D4B0E490193920000230D48009409F0D3
:100350005DFF80220B4B0C490193920000230B4858
:10036000009409F053FF09F063FFFEE74C4C0020B6
:10037000B06F0410791F0010484C0020C06F0410AB
:1003800091200010444C0020D06F0410D92100109F
:10039000F0B5C6461C0000B5304B0E00C118090D63
:1003A000063186B00500C9B22000170001F0B8FF81
:1003B000012331002200009328000BF04DF8802328
:1003C0005B020293FB1CFA011B031343244AA402A1
:1003D00013400393F823DB011C4080239B05234338
:1003E0000593204B0520049303F03AF804F0BAF982
:1003F0001D49041C0C9804F06AF9011C201C04F02F
:1004000052F9EC21890504F04BF9804604F0D2F949
:1004100084B20023002C0ED0200004F0A3F9011CAC
:10042000404604F03AF98721C90504F050F904F078
:10043000C1F9C3B21B0224043A001C43310002ABD1
:10044000280002940BF062F80123B3402A6813439A
:100450002B6006B080BCB846F0BDC0460000E0AFDF
:10046000FFFFFF9F00000E5000002041F0B5194E25
:1004700083B00500184930000AF06CFF174F0400E4
:10048000002130003E600AF049FF154B0100186062
:10049000144B2200386800932B00FFF779FF0022ED
:1004A0004821114B5A5200211A605A609A60DA6052
:1004B0001A615A619A61DA611A625A629A62DA6260
:1004C0001A635A639A63DA631A645A644A32995413
:1004D00003B0F0BD00002050D86F0410AC500020D5
:1004E00074530020005043495850002030B5044D4B
:1004F000440020182C002D186970AB70225430BDB8
:1005000058500020124B70B51A68124B12481C68E4
:1005100001232100060010318B40A4004B36141932
:10052000057851680B42FCD12561457851680B4232
:10053000FCD12561857851680B42FCD103302561DF
:100540008642EDD16420002102F0AAFD70BDC046B4
:10055000AC5000207453002058500020F0B557468E
:100560004E464546DE46E0B591B01F000B931AABF0
:1005700010CB1D780723A446267833405C1EA34188
:10058000F40866461C1973780894002B00D198E093
:10059000002C00D195E0FC00571E01229346063244
:1005A00092460E0009942900019000241A00654625
:1005B0003800EB785F46CB1A5343089A1B195A430D
:1005C00094460B9A0E91130063439B190293634662
:1005D000914605330A930B9B8144FB1A98464B4680
:1005E0000393434600222900019F0B9D0C940D9616
:1005F0000F9004930A9B0824C818835C039E9C46B2
:10060000029B079298460B00A8442900654605E026
:10061000013CE4B26D087618002C3AD05A462A42C2
:10062000F6D0049A9446B4440029F1D00595654665
:100630009C4643468846029806943A782900994693
:10064000824217D97B788B420ED95446CB085A4345
:10065000FB680C40019323005C469C40019B1218F0
:100660009B5C1C43019B9C54B14203D03A780131FE
:100670008242E7D801304B464845DED14146069CD0
:10068000059D013CE4B2C84663466D087618002C0F
:10069000C4D109980D0084461900039B079A63444E
:1006A0000393089B01329342A4D10D000C9C6A78FD
:1006B0000134E4B20D9E0E990F980197944200D236
:1006C00077E711B0F0BCBB46B246A946A046F0BDE4
:1006D000F0B5DE46574645464E46E0B50F009A4611
:1006E0008BB0149B0600C8B243499B46D3B2394035
:1006F00098461B020B4351461500D208D2B214048F
:1007000023431B0209061B0A0B4333605B4650431D
:1007100073603061013004F09BF8F060002868D00D
:10072000364B03AC03934346013B2371D3236371E0
:100730008023DB01E3808D232372337A0130F06064
:10074000002B49D114236D00BD424CDB1221F12254
:1007500063722B4B25276381DA2323735A3BFF3BBC
:10076000E3815933FF332374264B61736382264B35
:100770006274089300232376244B6F449846244BDD
:1007800002AD99460CE0013003D14146214805F005
:1007900003FF0134A74217D073689B46F3789A464B
:1007A000002322782B706A70514600932A0002338E
:1007B00058460AF09FFD831CE5D141464846013466
:1007C00005F0EAFEA742E7D101200BB0F0BCBB4622
:1007D000B246A946A046F0BD10236D00BD4205DB20
:1007E00012212222B4E70221F122B1E702212222C2
:1007F000AEE73061E9E7C046FF00FFFFAED580A855
:10080000A1C8FFFFDB300000A4A6AF20E86F0410F2
:1008100018700410F86F0410030010B50021C068B0
:100820001A6904F04BF810BDF0B54E4645465746E0
:10083000DE46E0B583B00C9D81462C789246984602
:100840000E00002C16D05F00104B47449B467F00E3
:100850002300203B01355E2B13D85B463100019409
:100860000093524643464846FFF778FE2C78F61927
:10087000002CEDD103B0F0BCBB46B246A946A04661
:10088000F0BD2C78F619002CE2D1F3E73870041093
:10089000F0B5CE464746212380B5027887B004AC38
:1008A0002380531EA3702223E370002323718378D7
:1008B0000600013B6371402A03D1202363703F335C
:1008C000A3701627214B6F449846214B03AD9946E0
:1008D00008E0013003D141461E4805F05DFE0134B9
:1008E000BC4213D0002322782B706A70F1787068B4
:1008F0002A00009302330AF0FDFC831CE9D1414633
:100900004846013405F048FEBC42EBD140220024A9
:10091000F368013B1A703369F268F178706801334B
:10092000013A00940AF0E6FC831C0AD0013003D19E
:100930000949084805F030FE07B0C0BCB946B046CA
:10094000F0BD0549024805F027FEF5E7E86F041001
:1009500018700410F86F04102870041010B50028E7
:1009600002D001280CD010BD002300220021FFF787
:10097000BDFD0023C82200210A20FFF7B7FDF2E7E2
:100980000023002200210330FFF7B0FD0023C8221E
:1009900000210E20FFF7AAFDE5E7C04610B50028AC
:1009A00002D001280DD010BD002300220021093003
:1009B000FFF79CFD00230022C8210020FFF796FDD1
:1009C000F1E70023002200210430FFF78FFD002310
:1009D0000022C8210420FFF789FDE4E710B50028B4
:1009E00002D001280DD010BD0023002200210A30C2
:1009F000FFF77CFD0023C822C8210920FFF776FD00
:100A0000F1E70023002200210D30FFF76FFD0023E6
:100A1000C822C8210520FFF769FDE4E7002802D0BD
:100A2000012803D07047034B1888FBE7024B188856
:100A3000F8E7C046EA1E0020E81E0020002802D089
:100A4000012803D07047034B1888FBE7024B188836
:100A5000F8E7C046E61E0020E41E00204160027256
:100A60007047C046F0B5CE46474680B585B0040015
:100A700002F0BAFB002967D0FA220023920002F0AC
:100A80003BFF13230B269946E0816E4403AD0123FF
:100A9000002798464B46337043462F70217A320028
:100AA0006068009301230AF025FC0123217A606825
:100AB0002A0000970AF028FC2B785B0723D1638972
:100AC000002BE7D002F090FB002912D0FA2200237D
:100AD000920002F011FFE389C01A63899842D6D9C7
:100AE00001231C4E2373300005B0C0BCB946B0468C
:100AF000F0BDFA21890002F0C1FEE389C01A6389C2
:100B00009842C4D9ECE71E23337043462F80217AE4
:100B100032006068009301230AF0ECFB217A2A007E
:100B20006068022300970AF0EFFB0C232E88FF3346
:100B30002B800A3B217A60682A0076BA0097FF3B37
:100B4000B6B20AF0D7FBCEE7FA21890002F096FE92
:100B500097E7C046FFFF0000F0B5C646C023002659
:100B6000040000B584B003AD5B002B807F3B017AAD
:100B70002A004068FF3B00960AF0BCFB484B2A0065
:100B80002B80FE3B217A6068FF3B00960AF0B2FBA7
:100B90002E80217A02232A00606800960AF0AAFBC0
:100BA00091228027237C2A706B70217A02232A00ED
:100BB00060687F0000960AF09DFB2F80217A022357
:100BC0002A00606800960AF095FBFF232B80217AAB
:100BD0002A006068FD3B00960AF08CFB80232B8086
:100BE000217A2A0060687E3B00960AF083FB2F8002
:100BF000217A02232A00606800960AF07BFB02F04B
:100C0000F3FA002946D0FA220023920002F074FE83
:100C10000B270026E0816F440123984643463E702F
:100C20002E70217A3A006068009301230AF062FB7B
:100C300001232A00217A606800960AF065FB42468B
:100C40002B781A4222D06389002BE7D002F0CCFA2D
:100C5000002911D0FA22638992009846002302F0FD
:100C60004BFEE389C01A8045D6D201230D48237379
:100C700004B080BCB846F0BDFA21890002F0FEFD48
:100C8000E389C01A63899842C6D9EEE72000FFF7CE
:100C9000E9FEEDE7FA21890002F0F0FDB8E7C04671
:100CA000FF010000FFFF000003000022007B1A7319
:100CB0007047C046F0B5DE4657464E464546C0230F
:100CC000E0B50026040085B003AD5B002B8099469B
:100CD0007F3BFF3B8B469246017A2A004068009694
:100CE0000AF008FB9B4B2A002B80FE3B217A6068B0
:100CF000FF3B00960AF0FEFA2E80217A02232A009A
:100D0000606800960AF0F6FA934B2A002B80217A4D
:100D1000022360680B2700960AF0ECFA83236F44E5
:100D20003B70984600232B700123217A3A006068BB
:100D300000930AF0DFFA217A01232A006068009606
:100D40000AF0E2FA42462B782A70042213436B70B1
:100D5000217A02232A00606800960AF0CBFA7F4BC2
:100D60002A002B80217A0223606800960AF0C2FADA
:100D70008223FF332B80803B217A2A006068FF3B6F
:100D800000960AF0B7FA4B462B807F3B217A2A0067
:100D90006068FF3B00960AF0ADFA714B2A002B8089
:100DA000217A0223606800960AF0A4FA43462B8059
:100DB000217A2A006068813B00960AF09BFA02F0D3
:100DC00013FA002900D1C0E0FA220023920002F0B9
:100DD00093FD83239946E0810123002698464B46E4
:100DE0003B7043462E70217A3A00606800930123DD
:100DF0000AF080FA0123217A60682A0000960AF03E
:100E000083FA2B78002B22D16389002BE7D002F0E4
:100E1000EBF9002911D0FA220023920002F06CFDB8
:100E20006689E389C01A8642D6D2002005B0F0BC9C
:100E3000BB46B246A946A046F0BDFA21890002F0A1
:100E40001DFDE389C01A63899842EED8C4E7842364
:100E5000FF332B80823B217A2A006068FF3B00969B
:100E60000AF048FA92233B7043462E70217A3A00EA
:100E70006068009301230AF03DFA217A01232A00D9
:100E8000606800960AF040FA7F2259462B781A4093
:100E90000A705246DB09137081232B80217A2A00C5
:100EA00060687F3B00960AF025FA2B4B2A002B80C6
:100EB000217A0223606800960AF01CFA4B463B70C8
:100EC00043462E70217A3A006068009301230AF0AD
:100ED00011FA217A01232A00606800960AF014FAB8
:100EE0004A462B782A70042293436B70217A02239E
:100EF0002A00606800960AF0FDF9164B2A002B8044
:100F0000FE3B217A6068FF3B00960AF0F3F98023EC
:100F10005B002B80217A2A006068FE3B00960AF075
:100F2000E9F9FF232B80217A2A006068FD3B0096B7
:100F30000AF0E0F980232B80217A60682A0000966D
:100F40007E3B0AF0D7F9012070E7FA21890002F010
:100F500095FC3EE7FF010000FF060000FF070000D0
:100F6000946B0000F0B5DE4657464E464546E0B568
:100F700087B002AB9C460B27502367443B7000238D
:100F80009A4605AE33700391013304009146017A0D
:100F90003A00406800939B460AF0ACF95346217A28
:100FA0006068320000935B460AF0AEF94A46337837
:100FB000606801335B00DBB2138046233B7053460D
:100FC00033705B46217A3A0000930AF093F9534656
:100FD000217A6068320000935B460AF095F94B462F
:100FE000FA2135781A7801359D8053019B1A5B01EF
:100FF0009B181801C01A0002F5308900FF3002F07A
:101000003DFCFA216843F5308900FF3002F036FCE0
:101010004B46D86051233B70534633805B46217A60
:1010200060683A0000930AF065F95346217A6068D7
:101030003200009302330AF067F9FF223588FA2163
:101040006DBAABB21B0A15409D404B469046013528
:101050001A78ADB2DD8053019B1A5B019B18180111
:10106000C01A0002F5308900FF3002F007FCFA21B7
:101070006843F5308900FF3002F000FC4B461861F0
:1010800070233B70002333705B46217A60683A001E
:1010900000930AF02FF95346217A606832000093DA
:1010A0005B460AF031F94A463378606801335B00E9
:1010B000DBB2538071233B70534633805B46217A09
:1010C0003A0000930AF016F95346217A606832001C
:1010D000009302330AF018F94346348864BAA2B286
:1010E000120A1C4094404B460134A4B21C81039B5D
:1010F000DB78002B05D04B46DB88E41A4B46A4B2C4
:101100001C814B46FA219A78890053019B1A5B0196
:101110009B181801C01A0002F530FF3002F0AEFB38
:10112000FA216043F5308900FF3002F0A7FB4B46FF
:10113000586107B0F0BCBB46B246A946A046F0BD18
:10114000F0B5CE46474680B58BB001246B460026ED
:1011500005001C721E74017A0123406802AA0094E3
:101160000AF0C8F8297A0123686804AA00960AF0F0
:10117000CBF86B461B7C9A08224090461F099A09BF
:10118000DE082740264014404246120230043A430B
:10119000210602430A4302925AB291466A46DB098B
:1011A0001373280004AA02A9FFF7DCFE002F2BD03E
:1011B000164B07989C466044002E1BD0144A079B90
:1011C000944663445B00C018002C05D0A522920011
:1011D0009446089B6344C0184B46002B04DA0D4A22
:1011E000099B94466344C01868610BB0C0BCB94603
:1011F000B046F0BD4346002BE6D0A52292009446AF
:10120000079B6344C018DFE70348D5E7840D00005F
:10121000B202000026020000360B0000F0B5D646F0
:101220004F464646C0B58CB001246B4600260500EB
:101230001C741E7604AA01238946017A4068009432
:101240000AF058F8297A0123686806AA00960AF07D
:101250005BF86B461B7E9A08224090461F099A094C
:10126000DE082740264014404246120230043A432A
:10127000210602430A4304925AB292466A46DB09A7
:101280001375280006AA04A9FFF76CFE002F64D08E
:101290003C4A099B94466344002E54D03A49099A2B
:1012A0008C46624452009B18002C05D0A521890071
:1012B0008C460A9A62449B185246002A06DB01209B
:1012C0000CB0E0BCBA46B146A846F0BD2F4A9446E1
:1012D00063444B4543D86A46917E4A01521A5201F3
:1012E00052181701BF1A4A46FA21D31A3F025E016B
:1012F000F537F61AFF37C9003800B600F61802F0C5
:10130000BDFAFA21F60036188900380002F0B6FA64
:101310000100300002F0B2FA002C02D06B46DB8BE9
:10132000C01800281DD001380023FF2806D901333A
:1013300040089BB2FF28FAD81B029BB203439BB222
:10134000190ADBB20FE04246002AADD0A521890080
:101350008C46099A62449B18A6E70D4B9CE7002037
:10136000AEE70023002103AA7120937000231070C0
:101370005170297A68680093033309F0BBFF4B462C
:101380006B619CE7840D0000B202000026020000A1
:10139000360B0000F0B5CE4647460122002380B54B
:1013A00085B003AD11432B706970017A04002A00E7
:1013B00040680093023309F09DFF01F015FF0029FA
:1013C00057D0FA220023920002F096FA13230B263C
:1013D0009946E0816E440123002798464B463370BE
:1013E00043462F70217A320060680093012309F090
:1013F00081FF0123217A60682A00009709F084FFA9
:101400002B785B0720D16389002BE7D001F0ECFE3D
:1014100000290FD0FA220023920002F06DFA6789AA
:10142000E389C01A8742D6D2002005B0C0BCB946B5
:10143000B046F0BDFA21890002F020FAE389C01A13
:1014400063899842F0D8C6E70C23FF332B800A3B10
:10145000217A2A006068FF3B009709F04BFF2F803C
:10146000217A606802232A00009709F043FF0120D7
:10147000DBE7FA21890002F001FAA7E7F0B5DE46C2
:1014800057464E464546E0B5040089B09648884622
:1014900005F082F8C02300279A4606AD04AE3370EB
:1014A0002F70BF3B217A320060680093994609F0A3
:1014B00021FF01232A00217A6068009709F024FFA8
:1014C00029788A4805F068F8534633704B462F70E8
:1014D000217A32006068009309F00CFF0123217A21
:1014E00060682A00009709F00FFF2B78EE2B00D0E0
:1014F0009FE04346002B01D000F0BCFC882300276E
:101500002B80217A2A006068863B009709F0F2FE62
:10151000C0235B002B807F3B217A2A006068FF3B61
:10152000009709F0E7FE724B2A002B80FE3B217AE0
:101530006068FF3B009709F0DDFE00232F809A468C
:10154000217A02232A006068009709F0D3FE9123D4
:10155000337053462B700123217A32006068009368
:10156000984609F0C7FE217A01232A006068009797
:1015700009F0CAFE2B782A00237480235B002B809D
:10158000217A6068FE3B009709F0B4FEFF232B80B0
:10159000217A2A006068FD3B009709F0ABFE8023AA
:1015A0002B80217A2A0060687E3B009709F0A2FE1A
:1015B00060233370994653462B704346217A32009C
:1015C0006068009309F096FE217A01232A00606882
:1015D000009709F099FE4A462B782A70122213438D
:1015E0006B70217A02232A006068009709F082FE5E
:1015F00044232B80383B217AAB702A006068093B7A
:10160000009709F077FEFF235B422B800233217A9B
:101610002A006068FF33009709F06CFE0E236B44CC
:101620001A000D236B4419002000FFF743FB00282C
:1016300008D10025280009B0F0BCBB46B246A94637
:10164000A046F0BDB0232B704346217A60682A0083
:10165000009309F04FFEC3B22370002B01D100F0BC
:101660002BFC0027224B2A002B80FE3B217A60684E
:10167000FF3B009709F03EFE4F232B80217A2A0082
:1016800060684D3B009709F035FE1A4B2A002B800D
:10169000217A02236068009709F02CFEFF232B803B
:1016A000217A2A006068FD3B009709F023FE124B67
:1016B0002A002B80217A02236068009709F01AFE25
:1016C0006B46987B0022434258410B23404298438B
:1016D0006B4693465B7B07329046063A99469446A2
:1016E00000230C301BE0C046187204102072041056
:1016F000FF0100004E2C0000B6B4FFFFD94511D009
:101700004146B25C19400A416146114203D05F462E
:101710000137FAB293460133DBB2302B0DD0DA0831
:101720009842EBD94146674619408F40B15C01337E
:10173000B943DBB2B154302BF1D11920310000266E
:1017400080332B700622684403F0BEF82A00217A09
:1017500007236068009609F0CDFDFE4B2070994686
:101760002B80FE3B2A00217A6068FF3B009609F03F
:10177000C1FD2E802A00217A02236068009609F0BC
:10178000B9FDFF232B8098462A00217A6068FD3B33
:10179000009609F0AFFD09232B802A00217A6068AA
:1017A000073B009609F0A6FD10232B802A00217A22
:1017B0009A4660680E3B009609F09CFD11232B8031
:1017C0002A00217A60680F3B009609F093FD92236E
:1017D0005B002B80233B2A00217A6068FF3B009648
:1017E00009F088FDDB235B422B802A00217A6068A8
:1017F000DD33009609F07EFD75232B802A00217AC7
:101800006068733B009609F075FD4B462B80FE3BEC
:101810002A00217A6068FF3B009609F06BFDCE4BF1
:101820002A002B80217A02236068009609F062FD6D
:1018300048232B802A00217A6068463B009609F0F5
:1018400059FDC64B2A002B80217A0223606800963E
:1018500009F050FD43462B802A00217A6068FD3B49
:10186000009609F047FD93231B012B802A00217A63
:1018700002236068009609F03DFD5423B84F2B8089
:101880002A00217A6068523B009609F033FD2F80D0
:101890002A00217A02236068009609F02BFDB14BE3
:1018A0002A002B80217A02236068009609F022FD2D
:1018B000AD4B2A002B80217A02236068009609F044
:1018C00019FDAA4B2A002B80217A0223606800961A
:1018D00009F010FD60232B802A00217A60685E3BAE
:1018E000009609F007FD27232B802A00217A6068E3
:1018F000253B009609F0FEFCCA23DB002B802A0062
:10190000217A02236068009609F0F4FC51232B80B1
:101910002A00217A60684F3B009609F0EBFC944B5B
:101920002A002B80217A02236068009609F0E2FCED
:10193000904B2A002B80217A02236068009609F0E0
:10194000D9FC8D4B2A002B80217A022360680096F7
:1019500009F0D0FC61232B802A00217A60685F3B6C
:10196000009609F0C7FC62232B802A00217A606868
:10197000603B009609F0BEFC64232B802A00217A8C
:101980006068623B009609F0B5FC65232B802A0055
:10199000217A6068633B009609F0ACFC774B2A0023
:1019A0002B80217A02236068009609F0A3FC4B4645
:1019B0002B80FE3B2A00217A6068FF3B009609F0ED
:1019C00099FC6F4B2A002B80217A022360680096D5
:1019D00009F090FC6B4B2A002B80217A022360686F
:1019E000009609F087FCB7235B422B802A00217AFE
:1019F0006068B933009609F07DFC4A232B802A00E9
:101A0000217A6068483B009609F074FC43462B80BD
:101A10002A00217A6068FD3B009609F06BFC5A4B66
:101A20002A002B80217A02236068009609F062FC6C
:101A30007B232B802A00217A6068793B009609F08D
:101A400059FC524B2A002B80217A022360680096B1
:101A500009F050FC4B462B80FE3B2A00217A60683F
:101A6000FF3B009609F046FC494B2A002B80217A67
:101A700002236068009609F03DFC42232B802A0077
:101A8000217A6068403B009609F034FCBC235B423D
:101A90002B802A00217A6068BE33009609F02AFC68
:101AA0003C4B2A002B80217A02236068009609F0C3
:101AB00021FC394B2A002B80217A02236068009692
:101AC00009F018FC354B2A002B80217A022360682C
:101AD000009609F00FFC324B2A002B80217A02235A
:101AE0006068009609F006FCD1235B012B802A0078
:101AF000217A02236068009609F0FCFB294B2A003A
:101B00002B80217A02236068009609F0F3FB43469C
:101B10002B802A00217A6068FD3B009609F0EAFBE1
:101B2000CD239B002B802A00217A02236068009637
:101B300009F0E0FB1C4B2A002B80217A022360680D
:101B4000009609F0D7FB4B462B80FE3B2A00217AFA
:101B500060682BE0FF0100004E2C000030200000E8
:101B600031040000320300004083FFFF46250000DF
:101B70005296FFFF560800005730000066A0FFFF96
:101B800022320000471400007A0A00007821000089
:101B900023340000452600004605000040400000B8
:101BA0000E0600004340000035440000FF3B009655
:101BB00009F0A0FB2F802A00217A0223606800969A
:101BC00009F098FBC14B2A002B80217A0223606820
:101BD000009609F08FFBBE4B2A002B80217A02234E
:101BE0006068009609F086FBBA4B2A002B80217AA8
:101BF00002236068009609F07DFB43462B802A0093
:101C0000217A6068FD3B009609F074FB44232B8029
:101C10002A00217A6068423B009609F06BFBAE4BCC
:101C20002A002B80217A02236068009609F062FB6B
:101C3000AA4B2A002B80217A02236068009609F0C3
:101C400059FBA74B2A002B80217A0223606800965B
:101C500009F050FB67232B802A00217A6068653BDE
:101C6000009609F047FB8E23DB002B802A00217AA7
:101C700002236068009609F03DFB7223FF332B803E
:101C8000703B2A00217A6068FF3B009609F032FB26
:101C9000944B2A002B809133217A6068FF330096A1
:101CA00009F028FB76232B802A00217A6068743B98
:101CB000009609F01FFB772306AF2B80217A3A00AC
:101CC0006068753B009609F015FB4B463B80FE3B78
:101CD000217A3A006068FF3B009609F00BFB0E2367
:101CE000FF333B800C3B217A3A006068FF3B009653
:101CF00009F000FB43463B80217A3A006068FD3BD7
:101D0000009609F0F7FAC0235B003B807F3B217A05
:101D10003A006068FF3B009609F0ECFA724B3A001B
:101D20003B80217A02236068009609F0E3FA4B4673
:101D30003B80FE3B217A3A006068FF3B009609F049
:101D4000D9FAC7235B003B808D3B217A3A0060685B
:101D5000FF3B009609F0CEFA80235B003B80217A9E
:101D60003A006068FE3B009609F0C4FA43463B80A7
:101D7000217A3A006068FD3B009609F0BBFA8023A7
:101D80003B80217A3A0060687E3B009609F0B2FA07
:101D9000564B3A003B80217A02236068009609F096
:101DA000A9FA0F22842501236A4415703E70217A16
:101DB0006068009309F09EFA217A01233A00606876
:101DC000009609F0A1FA52463B783D7093437B7030
:101DD000217A02233A006068009609F08BFA0C23FE
:101DE000FF333B800A3B217A3A00FF3B6068009654
:101DF00009F080FA2000FFF7A3F93D4B3A003B8041
:101E0000217A6061984660680223009609F072FAB0
:101E100061692000FFF702FA0223FF333B80217A39
:101E200060683A000096FF3B09F064FA4021200008
:101E3000FFF7B0FA002801D1FFF7FBFB2D4B3A006A
:101E40003B80217A02236068009609F053FA002152
:101E50002000FFF79FFA051E01D1FFF7EAFB43467A
:101E60003B80217A606802233A00009609F042FA2A
:101E7000FFF7E0FB8923337098464B462F70217A99
:101E8000320060680093012309F034FA217A2A00B5
:101E900060680123009709F037FA42462B782A70D0
:101EA000012213436B70217A606802232A00009795
:101EB00009F020FAFFF722FB217A606832000093D4
:101EC000063309F021FA2070FFF7CBFB4B09000025
:101ED0004C0500004D0400004520000047080000AC
:101EE0004828000072FEFFFF01F8FFFF0A0400000F
:101EF00001E8FFFF0102000010B5024809F060FD93
:101F000010BDC0461845002070B5050018200E0011
:101F100002F0E0FC040032002900FEF79FFD2000E3
:101F200070BDC04610B5002802D0182102F0E2FCB6
:101F300010BDC04610B5002802D0FFF79FFA10BDB3
:101F40000020FCE710B5002802D0FEF705FE10BD0A
:101F50000048FCE7FFFF000010B5002802D0FEF7A4
:101F6000A3FE10BD0120FCE710B5024809F028FDD2
:101F700010BDC0461C450020F8B5CE464746072098
:101F800080B5FEF773FA00233C4CC820237008F09C
:101F900055FA0120FEF702FD394B05279946394BCA
:101FA00004269846384D2378052BFDD89B00EB5826
:101FB0009F460120FEF712FDFEF7A4FA334808F011
:101FC0003DFA2770EFE70120FEF7C8FCFEF79AFA0A
:101FD0002E4808F033FA0120FEF720FD012102000F
:101FE000002008F029FD294808F028FA2670DAE7D1
:101FF0000020FEF7D3FCFEF785FA00F0E5F8434633
:1020000002220A210A2000F0B1F80120FEF716FD95
:1020100008F014FA03232370C5E70020FEF7DEFC66
:10202000FEF770FA194808F009FA02232370BAE79C
:102030000020FEF793FCFEF765FA00F0C5F800F00B
:10204000AFF84B46022205210A2000F08FF800204D
:10205000FEF7E4FC08F0F2F90123237000F0AEF87B
:10206000A1E70120FEF79AFCFEF74CFA0020FEF7EC
:10207000E5FC08F0E3F90023237094E7895402207B
:10208000247204102C72041038720410B80B000073
:10209000F0B5D6464F464646C0B52D4C82B02D49C8
:1020A000200009F0FDF80321002000F039F9032198
:1020B000012000F035F900220121002000F04AF94A
:1020C00000220121012000F045F929212000FFF71D
:1020D0001BFF051E2BD00121FFF72CFF00282FD05E
:1020E0001D4B1E4E98461E4B9946FA239B009A465E
:1020F00005E0300004F0C8F9C82008F09FF9280076
:10210000FFF720FF07002800FFF726FF041EF0D18D
:102110003900404604F040FA5745EDD24B460022C4
:10212000186800210223009408F0DCFCE4E70D4865
:1021300004F032FA02B0E0BCBA46B146A846F0BD9F
:102140002800FFF7EFFE084804F026FAF2E7C04641
:10215000B41F0020A0860100A47204109072041025
:102160004C4C0020507204107072041010B50A4CD0
:1021700082B0009313000A0001002000FEF754FB18
:10218000064B00221868002300210093023308F058
:10219000A9FC02B010BDC046244C0020444C0020D5
:1021A00010B501F021F80022024B18605960024B73
:1021B0001A7010BDB8300020885402200022014B54
:1021C0001A7070478854022010B50248FEF724FBAD
:1021D00010BDC046244C0020F0B5DE4657464E46A2
:1021E0004546E0B5454C89B04549200009F058F80E
:1021F00003210E2000F094F803210F2000F090F846
:10220000002201210E2000F0A5F8002201210F205C
:1022100000F0A0F83B4B00259B46402280211D7218
:1022200058463C230094FEF753FA5846FEF7F4FA5A
:102230005846FEF72DFB142008F000F9324B00221F
:10224000186800210223009508F04CFC2F4B304FFA
:102250000493304BB84605932F4B5F469A462F4B5D
:1022600007AE99463800FEF713FB01210020244AEF
:1022700008F0E2FB43461B78002B3BD0002354467A
:102280009B464D4600F0B0FF059B188801F0D8FD35
:102290002268636802900391002150429941002313
:1022A000174A01F011FB01F013FE0B000200029827
:1022B000039901F01EFD049A009001910321300062
:1022C00003F028FE022314220A2138000096FEF7AC
:1022D000ABFA5B460022002128680093022308F035
:1022E00001FCC82008F0AAF843461B78002BC9D18E
:1022F000A246A946C82008F0A1F8B3E7AC1F002009
:1023000040420F00244C0020484C0020B4720410BE
:1023100088540220EA1E0020B8300020444C0020DF
:10232000094A83009A1810B514684022544080323C
:102330002240064CC000A44663441A60044B9C46ED
:102340006044416010BDC04604C0014004D001405B
:1023500000400140074B8000C3181B68C900920071
:102360000A435A400C231340034A944660440360D6
:102370007047C04604C0014004D001408023DB0503
:102380001868000F7047C0460FB400B5084883B006
:1023900004F07AF8049B002B07D005A918000191DE
:1023A00003F00AFE034804F06FF8012003F01CFE5E
:1023B000BC720410B072041010B50148FFF7E4FFBE
:1023C000CC720410EFF3108072B6034A1368002B2E
:1023D000FCD0BFF35F8F70472C0100D0BFF35F8F3D
:1023E0000022024B1A6080F3108870472C0100D045
:1023F00070B5EFF3108C72B60D4D2B68002BFCD02E
:10240000BFF35F8F0724CB08C618C05C01230C40C4
:10241000A3401C000440034207D118433070BFF3AF
:102420005F8F2C608CF3108870BD1000FFF7ACFF3D
:102430002C0100D0F8B54746CE46884680B5EFF36C
:10244000108C72B6214D2C68002CFCD0BFF35F8F2E
:102450009A422CD8D4080727055D06190124174095
:10246000BC402C421FD007210127894609E0D4082F
:10247000055D06194C4639001440A1400C00294264
:1024800011D001329342F2D201204042BFF35F8F5C
:1024900000220E4B1A608CF3108800280FDBC0BCA2
:1024A000B946B046F8BD254310003570EEE7BFF3DE
:1024B0005F8F00232B608CF310880120404243463D
:1024C000002BECD00898FFF75FFFC0462C0100D02E
:1024D000044A1078431CDBB2172B00D91023137069
:1024E0007047C046EC1E002010B5064B064C82B06B
:1024F0000100009318221F232000FFF79BFF02B06A
:1025000010BDC046DC720410C84B00200021044BF3
:10251000044ABFF35F8F02C39342FAD17047C046AB
:10252000000100D0800100D0054B064A1360064A26
:10253000136053609360D36013615361936170477C
:102540008080808000E400E004E400E01F23184065
:102550001E3B8340002905D0C021044A4900535046
:1025600013607047802201498B50FAE700E100E0D8
:1025700001228240034B1B6813405A1E9341D8B27C
:102580007047C04600E100E001238340014A136028
:102590007047C04600E200E0064B10309B688000A8
:1025A000C358054A00209B1A2F229A424041C0B2CC
:1025B0007047C04600ED00E0F01E002070B50D0031
:1025C000EFF3108672B60F4A1368002BFCD0BFF3EE
:1025D0005F8F0D4B10309B6884001B590B4A934250
:1025E00003D09D4201D001F043F8074B9B681D5179
:1025F000BFF35F8FBFF35F8F0022024B1A6086F339
:10260000108870BD240100D000ED00E0CD01001065
:10261000F0B557464E46DE464546E0B585B0060065
:1026200000911700EFF3108B72B66A4A1368002B03
:10263000FCD0BFF35F8F0025674B5D579A46002D96
:1026400000DA8BE06B00654C01935B199B009846A8
:10265000A146C1444B4652469B7910361370604BDD
:10266000B6009B6899590B1B2F2B33D95D4B9942B0
:1026700000D0ACE0019B42469C465B4B6544AD00FC
:1026800063535A4B0232A218043B9B1A1B05584A4B
:102690005B0D651913436B80564B0121AB80FF2303
:1026A000AB71009BEF71AB604B460B4319004C4B79
:1026B0009B689951BFF35F8FBFF35F8F0022454B3B
:1026C0001A608BF3108805B0F0BCBB46B246A94631
:1026D000A046F0BD01200A008243D3798C46BB425C
:1026E00031D84546130044491B1B5B415943090D32
:1026F0003D4B63533D4B02356519043B5B1B1B058A
:102700003B4D5B0D2B43AA464D466B800425AC46E2
:102710005546E044131F44441B1B1B055B0D1D4322
:102720004B46997100999D8099604946DF71334B02
:1027300001431360BBE75800C01880002018C1791E
:10274000B94211D902000623D356002BF3DA0293C3
:10275000131D9A462A4B6146039319E000F088FF47
:10276000002553465D576DE7908802934005131D81
:102770009A46031561469C464046D444634604305D
:102780002018181AE0230005400D1B02184303907F
:1027900004235B429C46E14450464B461B1A1B05F2
:1027A0005B0D9C46124B9571984663464046034329
:1027B0009380019B5A199200039BA418A380029B4B
:1027C0000E4AA371009B2260E771A3606FE700F0DF
:1027D0004FFF4FE7240100D084540220F01E002058
:1027E00000ED00E0CD01001000A1FFFF201F002040
:1027F00000E0FFFF01BDFFFFAAAA000001488047DB
:1028000001BD000010B58308040003202040FF2410
:10281000054AC0009446844081409B0063441A6886
:10282000A2430A431A6010BD00E400E070B5012421
:102830000443EFF30581EFF3108C72B6214A13685D
:10284000002BFCD0BFF35F8F1F4B05001F4AED1A12
:102850006D416A43120D1E4D8900AE6852B2765822
:10286000A6421CD00621595691421CD0122159561D
:10287000914222D01E215956914220D02A215956E8
:102880000324914210D0134B19781A708171BFF351
:102890005F8F00220B4B1A608CF3108870BDAB6801
:1028A0000D4C5C50EFE700246100091989005B18AA
:1028B000FF21997109499980E5E70124F4E7022491
:1028C000F2E7C046240100D0F01E0020AAAA0000B2
:1028D00000ED00E084540220CD01001001BDFFFF97
:1028E00010B5084B084C82B001000093002205236C
:1028F0002000FFF79FFD002801DB1F23181A02B0FC
:1029000010BDC046F87204108A540220024B9C4647
:10291000614489000160704740000034F0B5C6464C
:10292000164D174E2C0000B5B54224D200230127C6
:10293000984623687F42002B11D0FFF7C9FD0100A4
:102940002800FFF7E3FF434667602372BFF35F8F02
:102950000C34B4420FD223682500002BEDD1FFF7D1
:10296000B7FD01002800FFF7D1FF6760BFF35F8F5D
:102970000834B442EFD380BCB846F0BD682A0020CA
:10298000782A002010B50400FFF7A2FD0100200006
:10299000FFF7BCFF01235B426360BFF35F8F10BD95
:1029A00010B504000120FFF79FFD034BC3189B00E7
:1029B0002360BFF35F8F10BD40000034034B9C4683
:1029C000614489000160BFF35F8F704740000034AD
:1029D000F0B5DE4657464E464546E0B585B0EFF3C6
:1029E000058203231340B64A9900575801229A40A2
:1029F00088469346B34B1A60B34B02935B46B34889
:102A000043630823FE5E002E35DABB881BB2002B21
:102A100000DBA8E0BB79002B00D0E9E00823F85EDA
:102A200000281EDB43007A691B18DB00D3189D6861
:102A3000DC686B1C00D108E1A44801004144826AB3
:102A40000B69AE1A9B1A9E4213D35A46036A1A4266
:102A50000FD09E4800F0C0FB8C4202DCCED18542F4
:102A6000CCD940BF05B0F0BCBB46B246A946A04693
:102A7000F0BD0D61EDE77A69730091469B19DB00AB
:102A800099444B469C68DD6800F0A6FB8D42BCDC97
:102A900000D1FEE0002D00DAE3E04B46029A1B690C
:102AA000934200D1D5E04A465288494694460822CE
:102AB000B85E62460004496910439847009001914E
:102AC0000099019A0B001000134300D1C9E01300D4
:102AD0000A00002800DBE0E020002900801A99416C
:102AE0004B469860D96000229A5E002A00DA8CE793
:102AF00053009C187D69E4002C190093A368E468D6
:102B00009A468C4200DD80E702D1834200D97CE7FF
:102B100008239C46BC443A8103976746009BB44611
:102B20003E000EE08C4200D1C5E01E000023F25EA4
:102B3000002A0BDB53009C18E4002C19A768E468FA
:102B4000BA469B18DB00EB188C42EBDD330066467F
:102B50009C464B461A806346039F1E80BB881BB26F
:102B6000002B00DA56E73A69EFF3108172B613686A
:102B7000002BFCD0BFF35F8F0123BE885B42BB807C
:102B800036B23B69BFF35F8F00221A6081F3108871
:102B9000002E00DA3EE73B0008333A0099467D6993
:102BA00073009B19DB00EB189968DC688C460820E1
:102BB000115E4846002910DB009306E0A34240D096
:102BC0000023F95E3800002906DB4F007F18FF0064
:102BD000EF19FB68A342F1DD009B068000201E5E1A
:102BE0001980002EDCDA1700BB79002B00D115E725
:102BF0000023BB713D000823F95E08354B1C00D152
:102C00002FE77C690800A44603E035004B1C00D187
:102C100006E74B005B180A006146DB00CE18C95E70
:102C200073881BB2002BF0DA01235B42DC17B36020
:102C3000F4608242EAD029803B89100033803A81D7
:102C4000E4E7BB686345BBD9C6E7631C00D0F3E685
:102C5000FFE64B465B699A461B6950469847002839
:102C600023D14B461B883A693B81EFF3108372B640
:102C700011680029FCD0BFF35F8F49467A880A802B
:102C80003A697E80BFF35F8F0021116083F3108863
:102C9000BBE6844200D8FDE6B7E60C4800F09CFA9B
:102CA000009B019CC01861411AE753461A685B6893
:102CB0000092019304E7824500D836E746E7C04614
:102CC000B85000203C700540D1290010004005405C
:102CD000074810B50268EFF3108172B61368002B35
:102CE000FCD0BFF35F8F06F0B7FA0020002110BDC3
:102CF0007053002070B52E4C2569002D04D00A2198
:102D00002C48FFF703FE70BD2B4E0321300000F06E
:102D100059FAE660FFF7DCFB284B03229C46D023E0
:102D200022701B061B6801216370254B6044A36061
:102D30000F23800020610220638063694942A180E3
:102D400019800231198647311D83585218315A5261
:102D500075325C3999521832013199521832013169
:102D60009952183201319952083518329D52023168
:102D70001832995218320131995218320131995250
:102D800018320131995218320131995218320131F9
:102D900099520C4B0C49DC6001303562FFF70EFC98
:102DA00001210320FFF7D2FB084B1D60A7E7C046B7
:102DB000381F0020705300200040054040000034C0
:102DC000FFFF1000B8500020D129001038600540E6
:102DD00000487047381F0020F8B51F0008AB1B786B
:102DE00004001600002B08D100F0FEF932003B0071
:102DF000121A8B41002B00DA53E02269EFF31080A6
:102E000072B61368002BFCD0BFF35F8F0223E15E24
:102E100063694A005218D2009B18002937DB1A88D0
:102E200062802269BFF35F8F0025156080F31088F0
:102E3000069A9E60DF601A61079A5A615A880132C9
:102E40005204520C101C002A1FD082B25880080471
:102E500010432669EFF3108772B63268002AFCD05F
:102E6000BFF35F8FA2881A80A1802369BFF35F8FB1
:102E700000221A6087F310880B4923788C460132B0
:102E80009A40E36863441A60F8BD0120DDE72369D6
:102E9000BFF35F8F00221A6080F310880120404248
:102EA000F2E70020F0E7C0463C20000070B50100CA
:102EB0000469EFF3108C72B620680028FCD0BFF3D1
:102EC0005F8F02200D5E4C6968004019C000241815
:102ED000002D37DB208848800869BFF35F8F00260C
:102EE00006608CF31088E3606388049801332061E6
:102EF0005B0405985B0CA26060611A1C002B1FD05C
:102F000093B22804628018430A69EFF3108C72B6FA
:102F10001368002BFCD0BFF35F8F8B8823808D80DC
:102F20000B69BFF35F8F00221A608CF310880B7857
:102F300001329A40CB6808498C4663441A6070BDE0
:102F40000122DDE70B69BFF35F8F00221A608CF36B
:102F5000108801204042F2E73C20000010B5438970
:102F60000A1493421ADD53009B184269DB00D31800
:102F70000469EFF3108C72B62268002AFCD0BFF30C
:102F80005F8F5A88090494B2090C8A4208D00369F9
:102F9000BFF35F8F00221A608CF31088002010BDF1
:102FA0008022120214435C80012302698371BFF303
:102FB0005F8F002111608CF31088044902788C46E1
:102FC0009340C268012062441360E8E73C2000009F
:102FD00040787047F0B54746CE46040080B50D00F6
:102FE00096267642F71736196F4183B08F4215D86F
:102FF00012D000F0F9F832003B00121A8B41002B7E
:1030000016DC002B40D02000290000F02BF903B083
:10301000C0BCB946B046F0BD8642EAD900260027BA
:1030200000F0E2F832003B00121A8B41002BE8DD81
:1030300000F0DAF832003B00121A8B41002B0ADB59
:1030400000230193124B3200009312483B00FFF71C
:103050002DFF0028D7DBB846B1460F4F0F4E7B6AD5
:10306000984504D8BA6A4A45CDD29845CBD1326842
:10307000EFF3108172B61368002BFCD0BFF35F8FA3
:10308000300006F0B3F8EAE7002ABCD0D0E7C0462B
:10309000D12C0010381F0020004005407053002044
:1030A00070B504000D0000F09FF8802300196941FD
:1030B0001B06994202D3012002494042FFF78AFFD2
:1030C00070BDC046FFFFFF7FF0B5CE46474680B5D6
:1030D00004000D0083B0EFF30587002F0DD0364AB2
:1030E0000020536A8B4203D3926A0130A24250D32C
:1030F00003B0C0BCB946B046F0BD304B9846DB6863
:103100009946434648461E7800F066F80B0049464B
:1031100002000436B600715820008E1A2900801A69
:1031200099418F4211DC0ED020BF234A0020536A00
:10313000AB42DDD3926A0130A242D9D2EB1A5A1EB9
:103140009341D8B2D4E78642EED900F04DF8220080
:103150002B00121A8B41002B20DB00230193184B0C
:103160002200009340462B00FFF7A0FE011E15DD54
:10317000114B2E005A6A95421CD89B6AA34217D362
:103180004046FFF7EBFE0C4A0020536A9E42AFD840
:10319000D0E75B1A5A1E9341D8B2A9E7064A00202D
:1031A000536AAB42A4D3926A0120A242A0D2C5E7DF
:1031B0009542E5D120BFE3E700400540381F0020DD
:1031C000D12C001010B5024A0248FFF711F910BDCA
:1031D00020730410CC4B00200300416A0A00986A57
:1031E000596A8A42FAD17047034B596A0A00986AB1
:1031F000596A9142FAD170470040054070B5040009
:103200000D00174A536A1900966A536A8B42FAD125
:103210003000190024184D41AB4216D813D0104B82
:103220002A005B6A9D4203D90D494B6A9342FCD345
:10323000934207D10A4A02E0516A994202D1916A47
:10324000A142F9D370BDA642E9D9054B5B6A1C00C7
:103250005A1CEFD0012201246442E5175242E3E7F1
:1032600000400540064A536A9942FCD807D1044BF6
:1032700002E05A6A914202D19A6A8242F9D37047B7
:1032800000400540F8B5DE464E4657464546E0B597
:103290008B4605000A991800160000F0EFFA0A9B09
:1032A0006C001F02324B64199C46A400644463689E
:1032B00081469F4200D967602B1FDBB29846012BE5
:1032C00030D9C02380229B01E31812011A60294BD8
:1032D000AD0059599A4600291BD17301E026226896
:1032E00053401E40802342465B01E3181E60012AC2
:1032F00030D9802380229B01E31812011A605346C3
:103300004A4667605A51F0BCBB46B246A946A04641
:10331000F8BD586900F0B2FA013043001B18033BB6
:10332000FDD2DAE75B46012BCBD1C02303229B0100
:10333000E3181A60023AA3681A42FCD07301E0262F
:103340002268AD0053401E4080230A4A5B0192462A
:10335000E3181E605A462168514003220A401A6051
:1033600001225B469A40A3681A42FCD0C1E7C046DE
:1033700000800040D44B0020F0B546464F46D6466C
:10338000C0B51F00344B44009C462418A40064447C
:10339000636888461600FF2B02D880235B006360B9
:1033A000031FDBB29A46012B30D9C02380229B0138
:1033B000E31812011A60294B8500595999460029D2
:1033C0001BD17301E026226853401E4080235246E1
:1033D0005B01E3181E60012A30D9802380229B0103
:1033E000E31812011A6080235B0063604B465F5153
:1033F000E0BCBA46B146A846F0BD586900F03EFAB6
:10340000013043001B18033BFDD2DAE74346012B92
:10341000CBD1C02303229B01E3181A60023AA368B0
:103420001A42FCD07301E0262268850053401E40FA
:1034300080230A4A5B019146E3181E6042462168D8
:10344000514003220A401A60012342469340A26879
:103450001342FCD0C1E7C04600800040D44B00209E
:10346000014B8000C0587047D44B0020F8B50400D1
:1034700020481D0017000E0000F000FA010038007F
:1034800000F0FCF9069B29041B0319432368002B59
:103490001EDB194B194DE21853425A4180235B0140
:1034A0009C461203164B62441A60164B1A601700B2
:1034B0002B689F43FBD1144B2660E2182123A060A8
:1034C00013602368002BFCDA0823E1601360F8BD69
:1034D0003F2322681340B342DBD1A3681B051B0DB9
:1034E0008342D6D1EE22E368D20213408B42D0D180
:1034F000EDE7C046001BB7000040FDBF08C000401C
:1035000000E0004000F000400430000010B58024CE
:103510001C4BE4051C6000281AD001231A4C1843E8
:103520001A4BDC611A4C44401C625962986280213B
:10353000144BC9051960174817490860E021C904F0
:103540001960002A07D18022144B12061A6010BDA0
:103550000E4BD861EBE753019B1A9B009A1880230E
:1035600012015B049A4209D213000D490B60074B0C
:103570005A608022094BD2051A60E8E7094B1A000D
:10358000F3E7C04600B00540D3C007B00080054057
:103590002D3FF84FFCFF01000820014000A005402E
:1035A000A4500020FFFFFF008023024A9B000B4332
:1035B000D362704700800540142310B501001888BD
:1035C00004331B88984710BD162310B501001888D6
:1035D00002331B88984710BDF8B54746CE4680B5E4
:1035E0000F1E19D014239946043304000025012628
:1035F00098464B461888434621681B88984701C463
:10360000431E9841013540420640AF42F1D130009F
:10361000C0BCB946B046F8BD0126F8E7142370B522
:103620000400188804331B880D00054998470300DF
:103630000020002C01DB0130A04029009847C04643
:1036400055420000AA23064A1B0113608D235B002C
:10365000D3600449044B19605368002BFCDA7047AF
:103660000040024000B0FA00006002407047C046CF
:1036700010B50148FEF788FE4473041070B5074D7D
:10368000074EB54209D20024013E761BB60808CD8C
:10369000984723000134B342F9D170BD406F041044
:1036A0007C6F0410054B064A06491A60064A074B10
:1036B0001A6010000B689843FBD1704700E000408F
:1036C000BFCDFBFE08C00040FE7F3C0000F0004084
:1036D000044BDB6C002B03D18022034BD2021A6017
:1036E0007047C046000011504C201150044A054B51
:1036F0001A60054A1368DB018033FBD17047C0466E
:10370000FFFFFF0100F0004008C000404022034BD3
:103710009A675A671A67DA667047C04600F0014038
:1037200010B5FEF7F3FE10BD70B5044D044CA9684A
:10373000C022200001F0C8F8AC6070BD00ED00E0D0
:1037400000000020002310B5294C82B0A367FFF7CA
:1037500079FF0122274B1A60636C012BFCD10322F5
:10376000254B1A60224A936B012BFCD10133009345
:103770000121224A22480433FFF778FE0523012164
:103780000093204A2048FFF771FE00220221042006
:103790001E4BFFF7F1FD0022012105201C4BFFF716
:1037A000EBFD0022002107201A4BFFF7E5FD002268
:1037B00000210820174BFFF7DFFD8023DB0000937B
:1037C000002200210920134BFFF75CFD0022104B63
:1037D00000210620FFF7D0FD0420FFF741FE0E492F
:1037E00000F04CF801000020FFF7DEFE02B010BD33
:1037F000008000403CB0004030B00040002F6859CD
:1038000000800240008C864700C00240001BB700C9
:1038100040597307006CDC0240420F00014804214C
:10382000014B1847501F0020D9350010124A936FE2
:103830009B0815D29066D166002905D0FFE7FFE707
:10384000FFE7516F106F704704B580210906C2175A
:103850005140002800D0C84343F002FB002104BDC2
:10386000F0B5146E556E576F166FFFF7E3FF1466D1
:10387000556657671667F0BD000000D0114A936F78
:103880009B0813D210665166002905D0FFE7FFE7B9
:10389000FFE7516F106F704704B5002801D000207A
:1038A000C04343F0DDFA002104BDC046F0B5146EFC
:1038B000556E576F166FFFF7E5FF1466556657672D
:1038C0001667F0BD000000D094464A4A926F9208F5
:1038D000624601D228E0C046F0B5464E346E756EA1
:1038E000776F366F00F020F89446424A14665566AA
:1038F000576716676246F0BD94463E4A926F92083B
:10390000624601D254E0C046F0B53A4E346E756E50
:10391000776F366F00F04CF89446364A1466556659
:10392000576716676246F0BD002B24DB11D00029D3
:103930003EDA00B5C943404200D1013100F038F809
:10394000C943404200D10131DB43524200D101332F
:1039500000BD002AEBD1002801D1002905D00020AC
:10396000C90FC90701D1C043410800B543F048FA67
:103970000022002300BD00B500290ADBDB435242D0
:1039800000D1013300F014F8C943404200D10131A5
:1039900000BDC943404200D10131DB43524200D156
:1039A000013300F005F8DB43524200D1013300BD82
:1039B000002923D1002B18D1002A0CD0BC460D4F72
:1039C00038667A6600210023FFE7FFE7FFE77A6F9A
:1039D000386F67467047002801D00748010000B5DE
:1039E00043F00EFA0022002300BD02000B0000206D
:1039F00000217047000000D0FFFFFFFF002B00D028
:103A0000BFE0130C28D1002AE7D080B4114F3966EB
:103A10007A66FFE7FFE730B4040C7B6F396F1B0455
:103A200023433B667A66FFE7FFE7FFE7C04684B2C1
:103A30007B6F3D6F1B0423433B667A66FFE7FFE71E
:103A4000C04600232C042D0C7A6F386F0019694191
:103A5000B0BC7047000000D0F0B594460025140EAD
:103A600001D112020835140F01D112010435940F4F
:103A700001D192000235D40F01D152000135D40B8F
:103A80000134254F7C66254C3C660E0C93B2FFE753
:103A9000FFE7FFE73C6F6643360C7703BE46734390
:103AA000DF0B5B04C01AB941130C7343DB18C91A4E
:103AB000CE086643360CB64493B273431F0F1B0106
:103AC000C01AB941130C73431F0B1B05C01AB9412F
:103AD000860D8F023E436643360C092D24DB520AC5
:103AE0007243801A7703460A6643360C16235B1B23
:103AF000DE40DF40BF1964466643821B70460435D2
:103B000006330100D940A840C01900D30131A242B8
:103B100006D20023F0BD0000000000D0FFFFFFFF31
:103B2000121B0130F3D3F1E709277F1BFE406446E7
:103B3000A2B27243801A00D20139220C7243130CD4
:103B40001204821A99410B007046043513370100A4
:103B5000F940A840801900D30131002B02D1A242C4
:103B60000AD2F0BD013000D30131121BFAD2013B61
:103B7000F8D1A24200D2F0BD013000D30131121BB6
:103B8000F7E7F0B51C0C00D080E00CB400251C0A4F
:103B900004D11B02160E3343120208351C0B04D14C
:103BA0001B01160F3343120104359C0B04D19B00FB
:103BB000960F334392000235DC0B02D192185B4121
:103BC00001351C00971864410134464F7C66464C11
:103BD0003C660E0CFFE7FFE7FFE7C0463C6F66431D
:103BE000360C7703BE4697B27743C01B00D201392B
:103BF000C01B00D201399FB27743C91BC91B170CE8
:103C000077437E04FF0B801BB941CE086643360C18
:103C10000C2D33DBB644120B1F053A431B0B97B236
:103C20007743C01B00D201399FB27743C91B170CE1
:103C300077433E043F0C801BB941860D8F023E4303
:103C4000664329277F1BFE400C3D7746AF40BF19D6
:103C500030BCA2B2ABB272437343801A9941220CBA
:103C60007243130C1204801A994102000B000137B1
:103C7000001BA941F9D2781E0021F0BD0C277F1B43
:103C8000FE4077467F0BAF40FF19E0E700245D1C44
:103C900007D0144F7D663966FFE7FFE7FFE7FFE7D0
:103CA0003C6F95B29EB265436643401BB141150C13
:103CB0001E0C6543664336042F0C3E432D04401B07
:103CC000B141994204D202000B0020000021F0BD56
:103CD00001D19042F7D3801A994101349942F2D32D
:103CE000F6E70000000000D0FFFFFFFF4840414022
:103CF000484018B41B4B5B68FC46019308BD04DFC9
:103D00002F40001018B4174B1B68FC46019308BDE8
:103D100000DF394000109446134A926F920809D28E
:103D2000624618B40F4BDB68FC46019308BD0CDFFC
:103D3000F14200100C4AF0B5146E556E576F166FB5
:103D40006246FFF7EEFF084A146655665767166726
:103D5000F0BD18B4034B9B68FC46019308BD08DF17
:103D600095410010B82E0020000000D0FFB5504053
:103D70004240504059404B40594000E0FFB5154F7C
:103D80004C00640D03D0BC4204D10C0314D80020B5
:103D9000090D09055C00640D03D0BC4204D11C036D
:103DA0000AD800221B0D1B0501264B4009D44B40AD
:103DB00003D58B4200D18242FFBD9942FCD1904293
:103DC000FFBD0B43DB1803431343F5D0C943491828
:103DD000FFBD0000FF07000000B5FFF7CFFF01D0D7
:103DE000002000BD012000BD00B5FFF7C7FF8041E6
:103DF00000BDC04600B5FFF7C1FF01D9002000BDDE
:103E0000012000BD00B5FFF7B1FF01D9002000BDC2
:103E1000012000BD00B5FFF7A9FF804100BD0120D2
:103E200040054A00121804D85A00121801D8002080
:103E300070470120704700000021002805D170471D
:103E4000C1174840401AFAD0C90713B5064B1B6882
:103E500098470CBC441CA2401005120B0349091BD7
:103E600009051943114310BD6C5300201F040000C5
:103E700010B54C00620D8023D218DB00D21A5B050E
:103E80007E2A10DD9E3A13DACC170903490819433C
:103E90005242D140640001341532202A05DAD04064
:103EA0000843604310BD002010BD0846604310BDAC
:103EB000C80FC018013810BD18B4044B5B6AFC462B
:103EC000019308BD24DFA14400100000B82E00209B
:103ED00018B4044BDB6DFC46019308BD5CDFAD45B7
:103EE00000100000B82E0020C94211D300B54900CF
:103EF0004908002200F018F8002904D400224042AA
:103F00008A41114600BD80210906002000BD000045
:103F100018B4044BDB6EFC46019308BD6CDFAF4464
:103F200000100000B82E002018B4044B9B6FFC4614
:103F3000019308BD78DFCB4400100000B82E0020AC
:103F400018B4044BDB6FFC46019308BD7CDF394598
:103F500000100000B82E0020132370B51D78012D2D
:103F600019D014DD1F48FFF72FFB06001E48FFF78E
:103F70002BFB1E4C80223100200000F0A5FC022DFE
:103F80002DD01B48FFF718FB1A4B186070BD1A4B59
:103F9000164CA364F5E7184B144C23606360A360D0
:103FA000E36023616361A361E36123626362A362EF
:103FB000E36223636363A363E36323646364A364CF
:103FC000E36423656365A365E36523666366A366AF
:103FD000E36623676367A367E367A364D1E7064BE0
:103FE000A364CEE75344000053460000B82E0020DF
:103FF0004C3300006C530020FD3F001007B56046B5
:1040000001880A0A0230DF2AFAD1C9B2820804D331
:10401000028840880004104300E00068014A5050C4
:10402000039007BDB82E00200FB403BC0CBCF0B544
:104030000124E407634000E0F0B50C0DCF0F661ECD
:104040003605891B640503D3C943404200D30131BF
:10405000640D03D0661CF60A07D0E41B00207F0025
:10406000791C89078912803C24031D0DDF0F6E1E09
:1040700036059B1B6D0503D3DB43524200D301334E
:104080006D0D03D06E1CF60A07D0ED1B00227F00D9
:104090007B1C9B079B12803D2D032F1B661B58D456
:1040A000A446202E46DA20371400BC401D00BD4037
:1040B000F24033412A4380185941CB0F05D0C94300
:1040C000C043002264425041514162464D0D28D107
:1040D0000D0D07D100281FD0241940414941013A54
:1040E0000D0DF9D0640006D3013000D30131002C4E
:1040F00001D140084000013A0BD4941CE40A04D1D9
:1041000012051144DB071944F0BDD907204B1943B0
:1041100000E0D9070020F0BD0029DDD1002CDBD163
:10412000F0BD0132C6074008CD0728434908002EDC
:10413000E1D0D9E73C2E29DA203E40371400BC40BC
:1041400000D00124F24014431A00BB401C43D31793
:10415000ACE7AC46202F08DA20360400B4400D004E
:10416000B540F84039412843A5E73C2F0CDA203F01
:1041700040360400B44000D00124F8400443080055
:10418000B1400C43C117EAE710001900002494E77E
:104190000000F07FF0B50C0D661E3605891BE60A9F
:1041A0006405640D02D0651CED0A04D000200121D5
:1041B0000905803C2403A4461C0D671E3F05DB1B3C
:1041C000E70A6405640D02D0651CED0A04D00022E4
:1041D00001231B05803C24037740644497B484B2D8
:1041E00096B27443070C7E43150C6F4380B268434C
:1041F000361802D3012000043F183004350C001992
:104200007D41844688B29AB250430C0C62431F0C25
:104210007C438EB27E43921902D301263604A41940
:104220001604170C3618674101BC81B29AB251438B
:10423000040C62431B0C5C4380B25843121802D337
:104240000120000424181004130C401863412D1899
:104250005E410020474106BC88B293B258430C0C23
:104260006343120C544389B251435B1802D30121BA
:104270000904641819041A0C091862416D18564192
:104280000020474118BCF902720D1143F0026A0D7B
:104290001043ED020A0D03D16D1940414941013B24
:1042A000124E9B1B7600B3420ED26D0007D3013035
:1042B000002671416646354301D1400840001B0588
:1042C000C918E4072144F0BD0BDA013306D10130EF
:1042D00004D101314F0D01D04908F2E7E107002078
:1042E000F0BD013631050020EBE70000FF030000C0
:1042F000F0B51C0D671E3F05DB1BE70A6405640D66
:1043000002D0661CF60A04D0002201231B05803C63
:104310002403D0252D060026F6432E661E096E6660
:10432000CE0FF619B44649004F0D02D07E1CF60A96
:1043300003D000200021403F3F033E1BB600B444A1
:10434000013F7F05C91B49082E6F013676089C0284
:10435000950D25437543ED137543AD1301356D1070
:10436000F603761B0CB4CC02450D2C43A2B2B3B2BB
:104370005A43270C7B43350C6F43A4B26C431B1983
:1043800002D3012424043F191C041D0CA4187D41F0
:1043900024196D41009A91B2ACB26143170C7C4371
:1043A0002B0C5F4392B25A43A41802D30122120489
:1043B000BF182204230C52187B41019C6C431B192B
:1043C000520ED9010A434401A01A81B2B2B251433C
:1043D00003145A43360C734387B27743D617D21966
:1043E00000277E4136049B191704160C7F185E4186
:1043F0007316ED18F301002680337541A90F06D11D
:104400006400690AE8055B0A184309D22FE0042218
:10441000944480337541A90AA8059B0A184326D302
:10442000404149412404009A019B0D005543641BFF
:104430004343E41A95B286B27543170C7E43030CCE
:104440005F4392B25A43B61802D301221204BF1836
:104450003204330C52197B4152429C41002C02D44D
:104460000022013051414008CA071043490802B0F8
:104470006246D7079210084BD218084B9A4203D2D3
:1044800012058918C919F0BD0020002A01DC390085
:10449000F0BD01331905F5E7FD030000FE0700003C
:1044A000002200B5203200F010F8080000BD002204
:1044B00000B500F00CF8CA179A4200D100BDD843ED
:1044C0000121C907414000BD00220B150AD410B5D7
:1044D000944600F0A7F81414013400DA0021CB1739
:1044E000144C20470020002170476244343A0CD419
:1044F0000C2A07DA04009140904052422032D44006
:10450000214310BDD843D94310BD203207D40C46F7
:104510009440524220321141D040204310BD080047
:10452000C917203203D452422032104110BD180066
:10453000190010BDEB4400104A00520D144BD21A62
:1045400013DDFF2A1EDAD205CB0FDB071A43C300A7
:10455000400F0903490A084310435B0001D301D00F
:10456000013070474308FBD2704702D0C80FC00724
:1045700070470A0312130132F8D1420F072AF5D10E
:10458000012200E0FF22C80F00028018C00570471A
:104590008003000000210A00002104E000210A003D
:1045A000C11704E00022002306E0C0460022CB171A
:1045B00058405940C01A994130B5184CA21A0029E8
:1045C00003D1010010D00020203A4C1512D104D2A2
:1045D000013A001849414C0DFAD3114CA24204D2C1
:1045E00012058918DB07C91830BDD243520D0020CF
:1045F0000021F5E703D4013A00184941FBD50B32FD
:104600004405C00A4D052843C90A640003D00024AC
:1046100060416141E1E7E0D34408F8E7320400007B
:10462000FE0700000A0DCC0F531E1B05C91A5205C8
:1046300003D3C943404200D30131520D03D0531C70
:10464000DB0A07D0121B00206400611C8907891255
:10465000803A1203014BD21A70470000FF0300009A
:1046600051434343C9188C46110C83B24B4310B4D9
:10467000040C614392B280B2504362431C041B0C91
:10468000001910BC59411304120CC0185141614467
:10469000704700004840414048400E4B5B68184757
:1046A0000C4B1B6818470C4A936F9B0802D2094BAE
:1046B000DB681847F0B5146E556E576F166FFFF72D
:1046C000F6FF054A1466556657671667F0BD014B3D
:1046D0009B681847B82F0020000000D007B548405D
:1046E0004140484001E0C04607B54200120E03D0E9
:1046F000FF2A03D1420218D8C00DC0054A00120E8D
:1047000003D0FF2A03D14A020FD8C90DC9050122DF
:10471000414005D4414001D5814207BD884207BDD3
:104720000143491801D0C043001807BD00B5FFF789
:10473000DBFF01D0002000BD012000BD00B5FFF768
:10474000D3FF01D9002000BD012000BD01231B06BD
:104750004200D21804D84A00D21801D8002070476D
:1047600001207047491A002808D108467047000008
:10477000C10FC90700D54042002817D0F44603B442
:104780000B4B1B68984706BC81409E3840428031E5
:1047900007D20B0607D04900490AC0051043084359
:1047A00060470130F8E7490A8902F5E770470000E1
:1047B0006C530020014B5B6A18470000B82F0020A3
:1047C000132310B512481C78FEF7FEFE0100012CE1
:1047D0000AD003DD80220F4800F076F80E48FEF77D
:1047E000EBFE0E4B186010BD0A4C5422200000F066
:1047F0006BF80B4B6365A365E36523666366A3668D
:10480000E36623676367A367E3672362E361E5E722
:1048100053460000B82F00204C3300006C5300209A
:104820002548001007B5604601880A0A0230DF2AD1
:10483000FAD1C9B2820804D3028840880004104328
:1048400000E00068014A5050039007BDB82F0020D7
:1048500070B504000A4E300042F062FB200035F0D3
:1048600043FF0500300042F0C3FA002D05D0054B90
:104870002C199C4201D8280070BD0348FDF784FD27
:10488000682A0020000004205073041070B5040052
:10489000054D280042F044FB200035F02FFF280092
:1048A00042F0A6FA70BDC046682A002001480421E3
:1048B000014B1847601F0020D9350010014B1B68C1
:1048C00018470000601F0020014B5B68184700007C
:1048D000601F002010B5FFF7BBFF10BD10B5FFF73C
:1048E000B7FF10BD10B5FFF7D1FF10BD10B5FFF732
:1048F000CDFF10BD10B5FFF7C9FF10BD9A4200D221
:10490000885470477047C046F8B557464546DE465E
:104910004E46E0B598460A9B06009A460D9B0F004E
:10492000934615009B0710D10B9B0C9A93420CD217
:1049300013005C460B9A9D1A5D44220043460134E5
:1049400039002020B047A542F7D10B9C6319002CF9
:1049500009D01D0053462A1B013C185D390043460F
:10496000B047002CF6D10D9B9B070ED55B46EC1A89
:104970000C9BA34209D999462A00434639002020BE
:104980000134B0470135A145F6D82800F0BCBB463C
:10499000B246A946A046F8BDF0B54F464646D646B3
:1049A000C0B584B098460EAB1B7894469946129BCE
:1049B0000D9C109F119E9A0724D4002E6AD1BC42F0
:1049C00020D201221A409246202C00D1CBE00C9A32
:1049D000551E302201E0202C30D001342A55A74248
:1049E000F9D85246002A0DD0B4420BD20C9A551E6B
:1049F0003022202C02D126E0202C61D001342A550F
:104A0000B442F9D1DA0634D55A0562D4002C5CD10F
:104A10000F9A102A00D191E0022A00D1A1E03022A1
:104A20000C9C227001244A46002A5CD15A0700D40B
:104A30007DE02B220C9D2A5501341CE05246002AB1
:104A400002D0202E3CD92024DA0614D55A0512D4DF
:104A5000202F00D197E0202E3BD120261F223400AA
:104A60000F9D102D00D181E0022D4CD030250C9FE0
:104A7000BD54202CD7D103930C9B62460093029621
:104A800043460194FFF740FF04B0E0BCBA46B1468C
:104A9000A846F0BD012215001D40AA461A4227D0A3
:104AA0004A46002A33D10C321A4230D1BC429BD242
:104AB000202C00D08BE7202EC5D8DA06A4D4DAE764
:104AC0002024DA06D7D55A0503D4A74221D0B44210
:104AD0001FD00F9A102A21D0022A10D0202CCAD021
:104AE00022000134C2E72D220C9D2A550134C2E771
:104AF000BC4200D386E7202C00D068E7E1E7202CF9
:104B0000B9D02200013462250C9FBD54E6E7013E76
:104B1000CCE7621E012C00D17AE7A1E79A0616D4F1
:104B2000202CA8D078220C9D2A550134D6E71A07EC
:104B3000A1D520220C9D2A5501349CE79A060ED45B
:104B400078220C9C22703022627002246BE7202CA9
:104B500091D058250C9A121915700134BEE75822CD
:104B6000EFE76222EDE7002AA7D1AAE7023C9D0603
:104B700004D478250C9F3D551400B1E758250C9FAF
:104B80003D551400ACE71F226AE7C04610B5002867
:104B900000D110BD01F02CFCFBE7C0460B0010B5A6
:104BA000002802D049681B68984710BDF0B55746E9
:104BB0004E464546DE46E0B599B082468946904667
:104BC0000993229A239B10001900FFF728F9002867
:104BD00000D0C8E0229823990122D54B5242FFF71A
:104BE00019F9002800D0BEE0229823990122D14B68
:104BF0005242FFF7F9F8002800D0B4E02298239938
:104C000000220023FFF7F0F8002800D0E9E1229EFF
:104C1000239F8023269ADB001A400D92269A1A427F
:104C200001D1062324933B00334300D0B4E0269BFC
:104C30001B0500D5BFE1002300240A930B94002339
:104C400004250C93259B0024AB4200D95C1B022356
:104C5000269A1A400D92269A134203D06B426B415A
:104C60005B421C400C9B002B07D00A9A0B9B300028
:104C70003900FFF750F806000F0022982399002210
:104C80000023FFF7B1F8002803D0802109067B1824
:104C90001F00269AA84B009601971340099E049383
:104CA000249B03940293424633004946504600F049
:104CB000A7F90400002D67D02020269A494602401B
:104CC00013005A4253415B42621C18400A9233005F
:104CD00022004530D0470C9A6F1ED317D4185C4081
:104CE000D30F9B46002501E0202D13D008AA94463F
:104CF0001F23200063440A2101355E19FEF7BEFD23
:104D00003031317020000A21FEF7B8FD2600040082
:104D1000092EE9D805230693002304930A3303934D
:104D20005B46099E029310AB0A9A009349463300F2
:104D3000504605970195FFF72FFE0D9A0400002AB3
:104D400022D04246851A259AAA421DD9B046574616
:104D5000160022004346494620200135B847013459
:104D6000AE42F6D810E0269B42460493259B494666
:104D70000393249B50460293229B239C009301940F
:104D8000099B00F03DF90400200019B0F0BCBB46BF
:104D9000B246A946A046F0BD684B78009C46400D3F
:104DA0006044FFF74DF8664A664BFEF7D2FF664A4D
:104DB000664BFEF7A7FF664A3B031B0B1A43040032
:104DC0000D00644B110030000022FEF792FF624A92
:104DD000624BFEF7BEFF02000B0020002900FEF729
:104DE00091FFFFF745F80C90FFF72AF85C4A5D4BFE
:104DF00004000D00FEF7ADFF00225B4BFEF782FFC3
:104E0000FFF736F8594A8346594B20002900FEF730
:104E1000A0FF040058460D00FFF712F8554A564B04
:104E2000FEF797FF02000B0020002900FEF761FF4C
:104E300002000B000A900B91FEF78BFF04000D009F
:104E40000A980B9902000B00FEF75CFF00220E90FF
:104E50000F914A4B20002900FEF75DFF0022484BCE
:104E6000FEF750FF02000B0020002900FEF753FF61
:104E70000022444BFEF746FF02000B0020002900F1
:104E8000FEF749FF0A9A0B9B0D0080210400C9051B
:104E90000020FEF72EFF02000B0020002900FEF785
:104EA00031FF394C02000B000E980F99FEF733FFCB
:104EB0005C440022264BFEF725FF23050022FEF767
:104EC00048FF04000D0002000B00300039000A9476
:104ED0000B95FEF789FF00285ED123002A00C62526
:104EE0000C9963318D42AD4126996D420435090517
:104EF00000D4A7E6134364D030003900234A244B82
:104F0000FEF780FF002807D0002230003900214B37
:104F1000FEF76AFF002854D1249B002B00D191E6B4
:104F20000D9B5A1E9341249AD31A24938AE6C046B5
:104F3000FFFFEF7FFFFFEFFFFFF7FFFF01FCFFFF2A
:104F4000FB799F501344D33FB3C8608B288AC63F78
:104F50000000F03F0000F83F61436F63A787D23F36
:104F600071A379094F930A400000E03F1655B5BB85
:104F7000B16B0240EF39FAFE422EE63F00002C40B2
:104F80000000244000001840FF0300002D431CEBEC
:104F9000E2361A3F80842E410C9B0022013B0C9389
:104FA0002000164B2900FEF7B6FE0A0001000300A0
:104FB0000A910B9293E7002300240A930B94002399
:104FC0000C93249A0C9B9A4214DDD31A013B249330
:104FD0008023269ADB001A430023002526920C9397
:104FE00030E6802212069446229B1E00239B6344D7
:104FF0001F000EE600232493EAE7C0460000244089
:10500000F0B54546DE464E465746E0B595B08B4670
:10501000904699461E9A1F9B0A9019001000209DE9
:10502000FEF7FDFE002800D0B0E11E981F99012276
:10503000C74B5242FEF7D8FE002800D037E11E9839
:105040001F990122C34B5242FEF7E4FE002800D014
:10505000A7E01E981F990022BF4BFEF7DBFE002839
:1050600000D088E01E981F990022BC4BFEF7BCFEC2
:10507000002800D07FE01E981F9900220023FEF731
:10508000B3FE002800D0FAE000230B938023229C7B
:10509000229ADB001C401A4200D102E1092D00D8FF
:1050A0007EE106A98C462C00172200233021093C02
:1050B00062440133D154EF1A202B00D132E1A342D4
:1050C000F7D10022A44B069207931E981F99FEF772
:1050D000CFFE0500FEF7B4FE02000B001E981F99DC
:1050E000FEF707FE069A079BFEF733FE089009912C
:1050F000FEF7E2FE0600FEF79FFE02000B00089896
:105100000999FEF7F6FD0022954B08900991FEF7EC
:1051100081FE002800D1D2E001363000FEF78CFE7F
:10512000069A079BFEF76EFE002801D00026013587
:10513000AA46002F00D098E02800FEF781FE02006A
:105140000B001E981F99FEF7D4FD854B0022060028
:105150000F00FEF749FE0CAB9A46002845D100220D
:10516000300039007E4BFEF755FE00283DD1EB079D
:105170003BD5013539E0229B42460493219B594699
:1051800003930A981E9B1F9C0295009301944B4623
:10519000FFF70CFD15B0F0BCBB46B246A946A046D1
:1051A000F0BD229B5B0767D403226E4B22990192CC
:1051B000039121990291009342464B4659460A9821
:1051C000FFF7A2FBE6E706AA9446172328006344EC
:1051D0000A2101341E19FEF729FB303128003170F5
:1051E0000A21FEF723FB051E76D0202CEBD10323EA
:1051F000229A1340012B1DD1219B002B1AD00B9B0F
:10520000002B00D0BBE0229A0C33134200D0B6E052
:10521000219BA34200D887E006AB9C46172230238F
:10522000624404E02199013413558C4259D0202C5A
:10523000F8D12024229B01940393219B029353468F
:10524000B9E706AA944617230A21634430000134C3
:105250001D19FEF713FB3031297030000A21013F80
:10526000FEF70CFB092E46D90600202CE9D1554645
:105270000CAB20249A46B8E704223B4B96E71E9AD3
:105280001F9B00200021FEF734FD01230B93802398
:10529000229C229ADB001E901F911C401A4200D0D3
:1052A000FCE60022314B0627069207930DE7229B6E
:1052B0000393219B0293042301932D4B7BE7002250
:1052C00008980999264BFEF78FFD002800D02FE79C
:1052D000002E4FD101362BE70323229A1340012BD6
:1052E00068D0202CA6D00B9B002B1FD02D2352461C
:1052F000135501349EE75546202CB9D030223B1976
:10530000002F4BD0172006A9013409180A55202C6C
:10531000AED09C42F6D10CAA92462E2251465C1C7D
:10532000CA5462E72024CCE6202C83D0229B5B0762
:1053300008D4229B1B0700D47CE720235246135538
:10534000013477E72B2352461355013472E7C046E8
:10535000FFFFEFFFFFFFEF7F65CDCD4165CDCDC1F5
:105360000000E03F0C7404100474041080842E418B
:1053700014740410F30700D4DAE60136D8E6219B52
:10538000013B2193A34200D946E7AAE7229B03935E
:10539000219B029303230193084B0CE72300BAE7F8
:1053A000074BEA009B185C681B682F000693079464
:1053B00000248AE6219B002B93D020E71074041070
:1053C000B8750410F0B5DE4657464E464546E0B582
:1053D0009FB01C00289B93460A93CC4ACC4B8A462C
:1053E00009901A60002900D14DE1002320789946E8
:1053F000002800D14FE1C74B4D460893C64B0D9393
:105400000AE02A006E1C5B46099D5146A8473500FC
:1054100001342078002872D02528F2D11023994633
:10542000083B9846043B00219C4602270134207823
:1054300026000300203BDBB2102B03D8089A9B0008
:10544000D3589F460300303B092B6ED900272A28EA
:1054500000D18AE000230B932E2800D176E00300D0
:10546000683BDBB2122B1BD8AC4C9B00E3589F4629
:10547000012301341943DAE739430134D7E763469E
:1054800001341943D3E74B4601341943CFE7434670
:1054900001341943CBE780235B0070781943013650
:1054A00067280AD824281FD90300253BDBB2422BEA
:1054B0001AD80D9A9B00D3589F460300693BDBB274
:1054C0000F2B11D801249C40954AA44690461440C5
:1054D0000C9462464446224200D025E20A2B00D1B9
:1054E00001E1072B00D1D8E0099C2A005B46514618
:1054F000A04770786F1C741C3D0000288CD1A94611
:105500002C00CB4503D801235B425B4499465B46A4
:105510004A4651460020099DA84720001FB0F0BC14
:10552000BB46B246A946A046F0BD0027BB00DF1926
:1055300001367F003F183078303F0300303B092BA5
:10554000F4D900230B932E2800D088E780237078AD
:10555000DB0019430300303B741C092B00D82CE1FD
:105560002A2800D138E1260079E70A9B80CB002F5A
:1055700003DB60780A93661C6CE7022260781143B3
:105580007F420A93661C65E7672800D1C8E1472877
:1055900000D104E2452800D104E207200A9B0491CF
:1055A0000733834319000B9A039702920CC9099899
:1055B000009201930A912A005B465146FFF7F6FAE2
:1055C000741C050025E770786C2800D10DE280235B
:1055D0005B001943013663E780239B007078194311
:1055E00001365DE77078682800D1F9E18023013643
:1055F000194355E7462800D18FE107200A9B049103
:105600000733834319000B9A039702920CC9099838
:10561000009201930A912A005B465146FFF7F0FC85
:10562000741C0500F5E62A00099C5B4651462520BE
:105630006F1CA0473D00741CEBE6890700D4DEE137
:105640000A9B2A0098466B1C9946434601CB51465B
:105650009846099C5B46C0B2A047ED19012F00D8BF
:1056600093E24C46B1465646099F22005B46013400
:1056700031002020B847AC42F7D1B24643464E46EF
:105680000A93741CC5E6274B20780993002399469A
:10569000002800D0AFE6002433E70A9B1A0008CAAE
:1056A0009046002B00D1A7E0212008430EA98C468C
:1056B0001F2262440F27AC46814615000C9C02E075
:1056C000202C0CD013003800184001003731092875
:1056D00000D80739013429551A090F2BF0D865462F
:1056E00048460C9494E00A9B1A0008CA12920B9A3E
:1056F000002A7BD102241A786442002A1DD001348A
:1057000018199C461C00030010E0C046C553001049
:10571000545000201C740410AC7404106074041005
:1057200041900000054900109C4203D0607801348C
:105730000028F9D16346E01A0C908020C00084460E
:10574000084080466046014204D00B980C9C84427D
:1057500000D90C900220844608400A906046084216
:1057600000D189E1101E00D170E14246002A00D12B
:105770001BE10B9A5B1B9046A84444462A00B8469E
:1057800099465746B246099E09E05B463900551CCA
:10579000B0474B46585D002800D12CE12A009442C6
:1057A000F3D156462500BA4647460A9B002B00D047
:1057B0004CE1129B741C0A932BE6002293009B1869
:1057C0005B0001341A182078303A0300303B092B73
:1057D000F4D926000B9242E60A9B023604CBD04352
:1057E000C01702400B9230780A9338E61A78002AE4
:1057F000A3D00B98441E82E710230800802798430B
:10580000113318430B00FF003B40394200D14DE7F4
:10581000082305930B9B2A00049310230393002372
:1058200002930C9B0690019316AB009351465B4686
:105830000998FFF7B1F843460500741C0A93E8E5A0
:10584000622800D1A6E1582800D1B1E180230A00E6
:10585000DB001A409046194200D189E11123994397
:105860008C46802362469B001A40100062461A4212
:1058700000D023E1802364465B001C401A4200D024
:1058800032E263465B0600D56BE163460A991B066C
:1058900000D4DBE208C91BB2DA179818504080B276
:1058A0000A91DA0F0C92002B00D118E280460EAA62
:1058B00091461F234B441395E14645461297B04647
:1058C0001E0001E0202C0FD028000A21FDF7D6FF92
:1058D000013437193031397028000A21FDF7CEFF25
:1058E0002F000500092FEDD84646CC46129F139D88
:1058F000634606930B9B059704930A2303930C9B23
:10590000029316AB2A000194009351465B46099816
:10591000FFF742F8741C05007BE5202319436CE671
:1059200080231B01194338E6782800D07CE18023CE
:105930000A00DB001A409146194200D1A5E20D236E
:105940009943080003330C93802302009B001A4004
:105950009046184200D078E1802304005B001C4090
:10596000184200D007E2430600D453E2FF210A9B0D
:1059700004CB0A4090460A934346002B00D026E110
:10598000103398434B46002B00D120E100240B9BA1
:10599000069004930C9B059703930023B0E78023A4
:1059A0001B01194320231943F7E55B1B99460C9B08
:1059B000099C98465B46B3465646BA461F002A00E5
:1059C0003B003100A0474B460135585D0028F6D119
:1059D00043460C933B005746B2465E469B46E4E680
:1059E000C023B078194302365AE5C0239B00B07833
:1059F0001943023654E55646BA464746D5E6012FC6
:105A000000D832E26B1E9846B8442C00A9464546A1
:105A1000B8465746B246099E22005B46013439001B
:105A20002020B047AC42F7D10A9B564601CBBA467C
:105A30004746984622005B46099C5146C0B2A047A3
:105A40004D464346ED190A93741CE2E40C9BA846AC
:105A50009F4200D8ADE64446B04656467D19099FA0
:105A6000ED1A22005B46013431002020B847AC42D9
:105A7000F7D1B24646469CE60C98874200D8F0E142
:105A8000424698467919B9465746B246099E0C1ABD
:105A90000C922A005B46013539002020B047A54210
:105AA000F7D15646BA464F4643460C9A90467A1C62
:105AB0000C921A78101E00D057E67AE608220721C9
:105AC00091460A9B07338B4399444A460ACB0C0004
:105AD0000A921C43DA0F002C4ED0D8170400109005
